{
    "tests/cancun/eip4844_blobs/test_point_evaluation_precompile.py::test_valid_inputs[fork_Cancun-state_test-result_Result.SUCCESS-in_bounds_z]": {
        "env": {
            "currentCoinbase": "0x2adc25665018aa1fe0e6bc666dac8fc2697ff9ba",
            "currentGasLimit": "0x055d4a80",
            "currentNumber": "0x01",
            "currentTimestamp": "0x03e8",
            "currentRandom": "0x0000000000000000000000000000000000000000000000000000000000000000",
            "currentDifficulty": "0x00",
            "currentBaseFee": "0x07",
            "currentExcessBlobGas": "0x00"
        },
        "pre": {
            "0x1000000000000000000000000000000000001000": {
                "nonce": "0x01",
                "balance": "0x00",
                "code": "0x366000600037604060003660006000600a61c350f16000556000516001556020516002553d6003553d600060003e60005160045560205160055500",
                "storage": {
                    "0x00": "0xba5e",
                    "0x01": "0xba5e",
                    "0x02": "0xba5e",
                    "0x03": "0xba5e",
                    "0x04": "0xba5e",
                    "0x05": "0xba5e"
                }
            },
            "0xa94f5374fce5edbc8e2a8697c15331677e6ebf0b": {
                "nonce": "0x00",
                "balance": "0x3635c9adc5dea00000",
                "code": "0x",
                "storage": {}
            }
        },
        "transaction": {
            "nonce": "0x00",
            "gasPrice": "0x0a",
            "gasLimit": [
                "0x4c4b40"
            ],
            "to": "0x1000000000000000000000000000000000001000",
            "value": [
                "0x00"
            ],
            "data": [
                "0x010657f37554c781402a22917dee2f75def7ab966d7b770905398eba3c44401473eda753299d7d483339d80809a1d80553bda402fffe5bfeffffffff000000000000000000000000000000000000000000000000000000000000000000000000c00000000000000000000000000000000000000000000000000000000000000000000000000000000000000000000000c00000000000000000000000000000000000000000000000000000000000000000000000000000000000000000000000"
            ],
            "sender": "0xa94f5374fce5edbc8e2a8697c15331677e6ebf0b",
            "secretKey": "0x45a915e4d060149eb4365960e6a7a45f334393093061116b197e3240065ff2d8"
        },
        "post": {
            "Cancun": [
                {
                    "hash": "0xc94088ded7d64a991d8b81f6830ac1da7ca8484aaf27247333f7b755c2caf2a2",
                    "logs": "0x1dcc4de8dec75d7aab85b567b6ccd41ad312451b948a7413f0a142fd40d49347",
                    "txbytes": "0xf90121800a834c4b4094100000000000000000000000000000000000100080b8c0010657f37554c781402a22917dee2f75def7ab966d7b770905398eba3c44401473eda753299d7d483339d80809a1d80553bda402fffe5bfeffffffff000000000000000000000000000000000000000000000000000000000000000000000000c00000000000000000000000000000000000000000000000000000000000000000000000000000000000000000000000c0000000000000000000000000000000000000000000000000000000000000000000000000000000000000000000000025a0b9159014738d955807712b8d1922afa5aed5365cdbac1b2066a97cc130423c97a04096b00b4a746c55821793e651e4cdca5e1e7ece5f7bb7e0f78630cb79eec062",
                    "indexes": {
                        "data": 0,
                        "gas": 0,
                        "value": 0
                    },
                    "state": {
                        "0x1000000000000000000000000000000000001000": {
                            "nonce": "0x01",
                            "balance": "0x00",
                            "code": "0x366000600037604060003660006000600a61c350f16000556000516001556020516002553d6003553d600060003e60005160045560205160055500",
                            "storage": {
                                "0x00": "0x01",
                                "0x01": "0x1000",
                                "0x02": "0x73eda753299d7d483339d80809a1d80553bda402fffe5bfeffffffff00000001",
                                "0x03": "0x40",
                                "0x04": "0x1000",
                                "0x05": "0x73eda753299d7d483339d80809a1d80553bda402fffe5bfeffffffff00000001"
                            }
                        },
                        "0xa94f5374fce5edbc8e2a8697c15331677e6ebf0b": {
                            "nonce": "0x01",
                            "balance": "0x3635c9adc5de9052b8",
                            "code": "0x",
                            "storage": {}
                        },
                        "0x2adc25665018aa1fe0e6bc666dac8fc2697ff9ba": {
                            "nonce": "0x00",
                            "balance": "0x04b3fc",
                            "code": "0x",
                            "storage": {}
                        }
                    }
                }
            ]
        },
        "config": {
            "blobSchedule": {
                "Cancun": {
                    "target": "0x03",
                    "max": "0x06",
                    "baseFeeUpdateFraction": "0x32f0ed"
                }
            },
            "chainid": "0x01"
        },
        "_info": {
            "hash": "0x94cc0292e942b753b11611b119b74f0e9d62cdce3cee5b8f7a35512059a7d584",
            "comment": "`execution-spec-tests` generated test",
            "filling-transition-tool": "ethereum-spec-evm-resolver 0.0.5",
            "description": "Test valid sanity precompile calls that are expected to succeed.\n\n    - `kzg_commitment` and `kzg_proof` are set to values such that `p(z)==0` for all values of `z`,\n    hence `y` is tested to be zero, and call to be successful.",
            "url": "https://github.com/ethereum/execution-spec-tests/blob/20770a694f440aeb4ea3ec86a3b9bc04d40146a3/tests/cancun/eip4844_blobs/test_point_evaluation_precompile.py#L267",
            "fixture-format": "state_test",
            "reference-spec": "https://github.com/ethereum/EIPs/blob/master/EIPS/eip-4844.md",
            "reference-spec-version": "de2e4a46ad93fc04e6fe3174dc6e90a3307bdb5f",
            "eels-resolution": {
                "git-url": "https://github.com/marioevz/execution-specs.git",
                "branch": "forks/bpo1",
                "commit": "3387e5f4aedfe99becfdc39b444d6371e25e0924"
            }
        }
    },
    "tests/cancun/eip4844_blobs/test_point_evaluation_precompile.py::test_valid_inputs[fork_Cancun-state_test-result_Result.SUCCESS-mainnet_1]": {
        "env": {
            "currentCoinbase": "0x2adc25665018aa1fe0e6bc666dac8fc2697ff9ba",
            "currentGasLimit": "0x055d4a80",
            "currentNumber": "0x01",
            "currentTimestamp": "0x03e8",
            "currentRandom": "0x0000000000000000000000000000000000000000000000000000000000000000",
            "currentDifficulty": "0x00",
            "currentBaseFee": "0x07",
            "currentExcessBlobGas": "0x00"
        },
        "pre": {
            "0x1000000000000000000000000000000000001000": {
                "nonce": "0x01",
                "balance": "0x00",
                "code": "0x366000600037604060003660006000600a61c350f16000556000516001556020516002553d6003553d600060003e60005160045560205160055500",
                "storage": {
                    "0x00": "0xba5e",
                    "0x01": "0xba5e",
                    "0x02": "0xba5e",
                    "0x03": "0xba5e",
                    "0x04": "0xba5e",
                    "0x05": "0xba5e"
                }
            },
            "0xa94f5374fce5edbc8e2a8697c15331677e6ebf0b": {
                "nonce": "0x00",
                "balance": "0x3635c9adc5dea00000",
                "code": "0x",
                "storage": {}
            }
        },
        "transaction": {
            "nonce": "0x00",
            "gasPrice": "0x0a",
            "gasLimit": [
                "0x4c4b40"
            ],
            "to": "0x1000000000000000000000000000000000001000",
            "value": [
                "0x00"
            ],
            "data": [
                "0x018156b94fe9735e573bab36dad05d60feb720d424ccd20aaf719343c31e4246019123bcb9d06356701f7be08b4494625b87a7b02edc566126fb81f6306e915f6c2eb1e94c2532935b8465351ba1bd88eabe2b3fa1aadff7d1cd816e8315bd38a9546d41993e10df2a7429b8490394ea9ee62807bae6f326d1044a51581306f58d4b9dfd5931e044688855280ff3799ea2ea83d9391e0ee42e0c650acc7a1f842a7d385189485ddb4fd54ade3d9fd50d608167dca6c776aad4b8ad5c20691bfe"
            ],
            "sender": "0xa94f5374fce5edbc8e2a8697c15331677e6ebf0b",
            "secretKey": "0x45a915e4d060149eb4365960e6a7a45f334393093061116b197e3240065ff2d8"
        },
        "post": {
            "Cancun": [
                {
                    "hash": "0xdbc7f898570b798f59a4561c3ed3826c633625422813e8b0bd798b5eef91c4ce",
                    "logs": "0x1dcc4de8dec75d7aab85b567b6ccd41ad312451b948a7413f0a142fd40d49347",
                    "txbytes": "0xf90121800a834c4b4094100000000000000000000000000000000000100080b8c0018156b94fe9735e573bab36dad05d60feb720d424ccd20aaf719343c31e4246019123bcb9d06356701f7be08b4494625b87a7b02edc566126fb81f6306e915f6c2eb1e94c2532935b8465351ba1bd88eabe2b3fa1aadff7d1cd816e8315bd38a9546d41993e10df2a7429b8490394ea9ee62807bae6f326d1044a51581306f58d4b9dfd5931e044688855280ff3799ea2ea83d9391e0ee42e0c650acc7a1f842a7d385189485ddb4fd54ade3d9fd50d608167dca6c776aad4b8ad5c20691bfe26a0a3974a308dbf16a7cbb4406855d6264585df3d460dfe9a5e3814f50bc9c61049a03c07e63b6860991fcd017d825daa036d7d648e2bc061f0c09c0386651526fc63",
                    "indexes": {
                        "data": 0,
                        "gas": 0,
                        "value": 0
                    },
                    "state": {
                        "0x1000000000000000000000000000000000001000": {
                            "nonce": "0x01",
                            "balance": "0x00",
                            "code": "0x366000600037604060003660006000600a61c350f16000556000516001556020516002553d6003553d600060003e60005160045560205160055500",
                            "storage": {
                                "0x00": "0x01",
                                "0x01": "0x1000",
                                "0x02": "0x73eda753299d7d483339d80809a1d80553bda402fffe5bfeffffffff00000001",
                                "0x03": "0x40",
                                "0x04": "0x1000",
                                "0x05": "0x73eda753299d7d483339d80809a1d80553bda402fffe5bfeffffffff00000001"
                            }
                        },
                        "0xa94f5374fce5edbc8e2a8697c15331677e6ebf0b": {
                            "nonce": "0x01",
                            "balance": "0x3635c9adc5de9015c8",
                            "code": "0x",
                            "storage": {}
                        },
                        "0x2adc25665018aa1fe0e6bc666dac8fc2697ff9ba": {
                            "nonce": "0x00",
                            "balance": "0x04c644",
                            "code": "0x",
                            "storage": {}
                        }
                    }
                }
            ]
        },
        "config": {
            "blobSchedule": {
                "Cancun": {
                    "target": "0x03",
                    "max": "0x06",
                    "baseFeeUpdateFraction": "0x32f0ed"
                }
            },
            "chainid": "0x01"
        },
        "_info": {
            "hash": "0x1a5c71d9ec308687533b989efe57bc1e261394da661bed746c321336d2eac3d7",
            "comment": "`execution-spec-tests` generated test",
            "filling-transition-tool": "ethereum-spec-evm-resolver 0.0.5",
            "description": "Test valid sanity precompile calls that are expected to succeed.\n\n    - `kzg_commitment` and `kzg_proof` are set to values such that `p(z)==0` for all values of `z`,\n    hence `y` is tested to be zero, and call to be successful.",
            "url": "https://github.com/ethereum/execution-spec-tests/blob/20770a694f440aeb4ea3ec86a3b9bc04d40146a3/tests/cancun/eip4844_blobs/test_point_evaluation_precompile.py#L267",
            "fixture-format": "state_test",
            "reference-spec": "https://github.com/ethereum/EIPs/blob/master/EIPS/eip-4844.md",
            "reference-spec-version": "de2e4a46ad93fc04e6fe3174dc6e90a3307bdb5f",
            "eels-resolution": {
                "git-url": "https://github.com/marioevz/execution-specs.git",
                "branch": "forks/bpo1",
                "commit": "3387e5f4aedfe99becfdc39b444d6371e25e0924"
            }
        }
    }
}