{
    "tests/cancun/eip4844_blobs/test_blob_txs.py::test_blob_type_tx_pre_fork[fork_Shanghai-state_test-no_blob_tx]": {
        "env": {
            "currentCoinbase": "0x2adc25665018aa1fe0e6bc666dac8fc2697ff9ba",
            "currentGasLimit": "0x055d4a80",
            "currentNumber": "0x01",
            "currentTimestamp": "0x03e8",
            "currentRandom": "0x0000000000000000000000000000000000000000000000000000000000000000",
            "currentDifficulty": "0x00",
            "currentBaseFee": "0x07"
        },
        "pre": {
            "0xa94f5374fce5edbc8e2a8697c15331677e6ebf0b": {
                "nonce": "0x00",
                "balance": "0x023e39",
                "code": "0x",
                "storage": {}
            }
        },
        "transaction": {
            "nonce": "0x00",
            "maxPriorityFeePerGas": "0x00",
            "maxFeePerGas": "0x07",
            "gasLimit": [
                "0x5208"
            ],
            "to": "0x8a0a19589531694250d570040a0c4b74576919b8",
            "value": [
                "0x01"
            ],
            "data": [
                "0x"
            ],
            "accessLists": [
                []
            ],
            "maxFeePerBlobGas": "0x01",
            "blobVersionedHashes": [],
            "sender": "0xa94f5374fce5edbc8e2a8697c15331677e6ebf0b",
            "secretKey": "0x45a915e4d060149eb4365960e6a7a45f334393093061116b197e3240065ff2d8"
        },
        "post": {
            "Shanghai": [
                {
                    "hash": "0x51f41d6ab2123b8c2bef303127d48c31e5b8ccee1bfde9f853f443fe9711c3fa",
                    "logs": "0x1dcc4de8dec75d7aab85b567b6ccd41ad312451b948a7413f0a142fd40d49347",
                    "txbytes": "0x03f86401808007825208948a0a19589531694250d570040a0c4b74576919b80180c001c001a07426ee04aab33fa24c2ec46acf22077f6dd214d9736ad9d656d5d02a2314cfc0a0598722a584a72b13506b83a79eaa5c8020f52cc9563489c204a2d79d5b8ff25f",
                    "indexes": {
                        "data": 0,
                        "gas": 0,
                        "value": 0
                    },
                    "state": {
                        "0xa94f5374fce5edbc8e2a8697c15331677e6ebf0b": {
                            "nonce": "0x00",
                            "balance": "0x023e39",
                            "code": "0x",
                            "storage": {}
                        }
                    },
                    "expectException": "TransactionException.TYPE_3_TX_PRE_FORK|TransactionException.TYPE_3_TX_ZERO_BLOBS"
                }
            ]
        },
        "config": {
            "chainid": "0x01"
        },
        "_info": {
            "hash": "0xb4c1df57deef0b35307b9e31a4cdb712747f62c5052537b2359786c0e3b6a713",
            "comment": "`execution-spec-tests` generated test",
            "filling-transition-tool": "ethereum-spec-evm-resolver 0.0.5",
            "description": "Reject blocks with blob type transactions before Cancun fork.\n\n    Blocks sent by NewPayloadV2 (Shanghai) that contain blob type transactions, furthermore blobs\n    field within NewPayloadV2 method must be computed as INVALID, due to an invalid block hash.",
            "url": "https://github.com/ethereum/execution-spec-tests/blob/20770a694f440aeb4ea3ec86a3b9bc04d40146a3/tests/cancun/eip4844_blobs/test_blob_txs.py#L1348",
            "fixture-format": "state_test",
            "reference-spec": "https://github.com/ethereum/EIPs/blob/master/EIPS/eip-4844.md",
            "reference-spec-version": "de2e4a46ad93fc04e6fe3174dc6e90a3307bdb5f",
            "eels-resolution": {
                "git-url": "https://github.com/marioevz/execution-specs.git",
                "branch": "forks/bpo1",
                "commit": "3387e5f4aedfe99becfdc39b444d6371e25e0924"
            }
        }
    },
    "tests/cancun/eip4844_blobs/test_blob_txs.py::test_blob_type_tx_pre_fork[fork_Shanghai-state_test-one_blob_tx]": {
        "env": {
            "currentCoinbase": "0x2adc25665018aa1fe0e6bc666dac8fc2697ff9ba",
            "currentGasLimit": "0x055d4a80",
            "currentNumber": "0x01",
            "currentTimestamp": "0x03e8",
            "currentRandom": "0x0000000000000000000000000000000000000000000000000000000000000000",
            "currentDifficulty": "0x00",
            "currentBaseFee": "0x07"
        },
        "pre": {
            "0xa94f5374fce5edbc8e2a8697c15331677e6ebf0b": {
                "nonce": "0x00",
                "balance": "0x043e39",
                "code": "0x",
                "storage": {}
            }
        },
        "transaction": {
            "nonce": "0x00",
            "maxPriorityFeePerGas": "0x00",
            "maxFeePerGas": "0x07",
            "gasLimit": [
                "0x5208"
            ],
            "to": "0x8a0a19589531694250d570040a0c4b74576919b8",
            "value": [
                "0x01"
            ],
            "data": [
                "0x"
            ],
            "accessLists": [
                []
            ],
            "maxFeePerBlobGas": "0x01",
            "blobVersionedHashes": [
                "0x0100000000000000000000000000000000000000000000000000000000000000"
            ],
            "sender": "0xa94f5374fce5edbc8e2a8697c15331677e6ebf0b",
            "secretKey": "0x45a915e4d060149eb4365960e6a7a45f334393093061116b197e3240065ff2d8"
        },
        "post": {
            "Shanghai": [
                {
                    "hash": "0x60801982e5816ed2f91320cea42769e76120d71d863d48bf8ec4d905455ae9cd",
                    "logs": "0x1dcc4de8dec75d7aab85b567b6ccd41ad312451b948a7413f0a142fd40d49347",
                    "txbytes": "0x03f88501808007825208948a0a19589531694250d570040a0c4b74576919b80180c001e1a0010000000000000000000000000000000000000000000000000000000000000001a06c120e55aeb31122c5caad29e69d28ec90abb71e089e0cdf4aebbf51bbc46a89a067983552dabf029ffb7ac58209a620d4a98eeeaf3df55bc9eb8e7684051ac70a",
                    "indexes": {
                        "data": 0,
                        "gas": 0,
                        "value": 0
                    },
                    "state": {
                        "0xa94f5374fce5edbc8e2a8697c15331677e6ebf0b": {
                            "nonce": "0x00",
                            "balance": "0x043e39",
                            "code": "0x",
                            "storage": {}
                        }
                    },
                    "expectException": "TransactionException.TYPE_3_TX_PRE_FORK"
                }
            ]
        },
        "config": {
            "chainid": "0x01"
        },
        "_info": {
            "hash": "0x2f7f2ea8530149d376ac500bc698f8fe7caf48b17aeea32bb99e9dd9f1ef82af",
            "comment": "`execution-spec-tests` generated test",
            "filling-transition-tool": "ethereum-spec-evm-resolver 0.0.5",
            "description": "Reject blocks with blob type transactions before Cancun fork.\n\n    Blocks sent by NewPayloadV2 (Shanghai) that contain blob type transactions, furthermore blobs\n    field within NewPayloadV2 method must be computed as INVALID, due to an invalid block hash.",
            "url": "https://github.com/ethereum/execution-spec-tests/blob/20770a694f440aeb4ea3ec86a3b9bc04d40146a3/tests/cancun/eip4844_blobs/test_blob_txs.py#L1348",
            "fixture-format": "state_test",
            "reference-spec": "https://github.com/ethereum/EIPs/blob/master/EIPS/eip-4844.md",
            "reference-spec-version": "de2e4a46ad93fc04e6fe3174dc6e90a3307bdb5f",
            "eels-resolution": {
                "git-url": "https://github.com/marioevz/execution-specs.git",
                "branch": "forks/bpo1",
                "commit": "3387e5f4aedfe99becfdc39b444d6371e25e0924"
            }
        }
    }
}