{
    "tests/prague/eip2537_bls_12_381_precompiles/test_bls12_map_fp_to_g1.py::test_isogeny_kernel_values[fork_Prague-state_test-isogeny_kernel_0--]": {
        "env": {
            "currentCoinbase": "0x2adc25665018aa1fe0e6bc666dac8fc2697ff9ba",
            "currentGasLimit": "0x055d4a80",
            "currentNumber": "0x01",
            "currentTimestamp": "0x03e8",
            "currentRandom": "0x0000000000000000000000000000000000000000000000000000000000000000",
            "currentDifficulty": "0x00",
            "currentBaseFee": "0x07",
            "currentExcessBlobGas": "0x00"
        },
        "pre": {
            "0x1000000000000000000000000000000000001000": {
                "nonce": "0x01",
                "balance": "0x00",
                "code": "0x366000600037600060003660006000601061157cf16000553d6001553d600060003e3d600020600255",
                "storage": {}
            },
            "0xa94f5374fce5edbc8e2a8697c15331677e6ebf0b": {
                "nonce": "0x00",
                "balance": "0x0de0b6b3a7640000",
                "code": "0x",
                "storage": {}
            }
        },
        "transaction": {
            "nonce": "0x00",
            "gasPrice": "0x0a",
            "gasLimit": [
                "0x01f64a"
            ],
            "to": "0x1000000000000000000000000000000000001000",
            "value": [
                "0x00"
            ],
            "data": [
                "0x000000000000000000000000000000000b3f3f9519ff3ab349e4ffc214f99998a697b02358fcfe44830e29129f58d6f9154a23fd14dfa660a75d4aaec9b607c3"
            ],
            "sender": "0xa94f5374fce5edbc8e2a8697c15331677e6ebf0b",
            "secretKey": "0x45a915e4d060149eb4365960e6a7a45f334393093061116b197e3240065ff2d8"
        },
        "post": {
            "Prague": [
                {
                    "hash": "0x2b6a5d48152deeeb9a1a714b2521c07a08f67826ac22f0025d54c0c7771b71bd",
                    "logs": "0x1dcc4de8dec75d7aab85b567b6ccd41ad312451b948a7413f0a142fd40d49347",
                    "txbytes": "0xf8a1800a8301f64a94100000000000000000000000000000000000100080b840000000000000000000000000000000000b3f3f9519ff3ab349e4ffc214f99998a697b02358fcfe44830e29129f58d6f9154a23fd14dfa660a75d4aaec9b607c325a014a891a02ad9e5ccecd64cbb28ca41896eabd8cb2947cadce1703b230a655f89a07891f1572080441a543baea0e7eb0eed61ee15a448dcbdf7b6213a669cf47c88",
                    "indexes": {
                        "data": 0,
                        "gas": 0,
                        "value": 0
                    },
                    "state": {
                        "0x1000000000000000000000000000000000001000": {
                            "nonce": "0x01",
                            "balance": "0x00",
                            "code": "0x366000600037600060003660006000601061157cf16000553d6001553d600060003e3d600020600255",
                            "storage": {
                                "0x00": "0x01",
                                "0x01": "0x80",
                                "0x02": "0x012893657d8eb2efad4de0a91bcd0e39ad9837745dec3ea923737ea803fc8e3d"
                            }
                        },
                        "0xa94f5374fce5edbc8e2a8697c15331677e6ebf0b": {
                            "nonce": "0x01",
                            "balance": "0x0de0b6b3a755ad0c",
                            "code": "0x",
                            "storage": {}
                        },
                        "0x2adc25665018aa1fe0e6bc666dac8fc2697ff9ba": {
                            "nonce": "0x00",
                            "balance": "0x044c16",
                            "code": "0x",
                            "storage": {}
                        }
                    }
                }
            ]
        },
        "config": {
            "blobSchedule": {
                "Cancun": {
                    "target": "0x03",
                    "max": "0x06",
                    "baseFeeUpdateFraction": "0x32f0ed"
                },
                "Prague": {
                    "target": "0x06",
                    "max": "0x09",
                    "baseFeeUpdateFraction": "0x4c6964"
                }
            },
            "chainid": "0x01"
        },
        "_info": {
            "hash": "0xc3f5f96562ad4ee3feb88cb40726f2115a59e8c0a9f7d337eed9bd02fce4cbe1",
            "comment": "`execution-spec-tests` generated test",
            "filling-transition-tool": "ethereum-spec-evm-resolver 0.0.5",
            "description": "Test the BLS12_MAP_FP_TO_G1 precompile with isogeny kernel inputs.\n\n    The isogeny kernel is simply the set of special field values, that after the two step mapping\n    (first SWU onto an auxiliary curve, then an 11-degree isogeny back to G1), collapse exactly\n    to the identity point.\n\n    Please proceed to the generator in `helpers.py` to see how the isogeny kernel values are\n    generated.",
            "url": "https://github.com/ethereum/execution-spec-tests/blob/0044e83ccf97e84932e663ed1441d08efa019e26/tests/prague/eip2537_bls_12_381_precompiles/test_bls12_map_fp_to_g1.py#L74",
            "fixture-format": "state_test",
            "reference-spec": "https://github.com/ethereum/EIPs/blob/master/EIPS/eip-2537.md",
            "reference-spec-version": "c561ec1426fe5ec470eade499a0bd4174f270583",
            "eels-resolution": {
                "git-url": "https://github.com/marioevz/execution-specs.git",
                "branch": "forks/bpo1",
                "commit": "3387e5f4aedfe99becfdc39b444d6371e25e0924"
            }
        }
    },
    "tests/prague/eip2537_bls_12_381_precompiles/test_bls12_map_fp_to_g1.py::test_isogeny_kernel_values[fork_Prague-state_test-isogeny_kernel_1--]": {
        "env": {
            "currentCoinbase": "0x2adc25665018aa1fe0e6bc666dac8fc2697ff9ba",
            "currentGasLimit": "0x055d4a80",
            "currentNumber": "0x01",
            "currentTimestamp": "0x03e8",
            "currentRandom": "0x0000000000000000000000000000000000000000000000000000000000000000",
            "currentDifficulty": "0x00",
            "currentBaseFee": "0x07",
            "currentExcessBlobGas": "0x00"
        },
        "pre": {
            "0x1000000000000000000000000000000000001000": {
                "nonce": "0x01",
                "balance": "0x00",
                "code": "0x366000600037600060003660006000601061157cf16000553d6001553d600060003e3d600020600255",
                "storage": {}
            },
            "0xa94f5374fce5edbc8e2a8697c15331677e6ebf0b": {
                "nonce": "0x00",
                "balance": "0x0de0b6b3a7640000",
                "code": "0x",
                "storage": {}
            }
        },
        "transaction": {
            "nonce": "0x00",
            "gasPrice": "0x0a",
            "gasLimit": [
                "0x01f64a"
            ],
            "to": "0x1000000000000000000000000000000000001000",
            "value": [
                "0x00"
            ],
            "data": [
                "0x000000000000000000000000000000000598c1367bbd9d3b73dfefb263a117bcdbcb4c7a282897d4a20589ad2ea80da73b23a465e2c291e7ef0fde593438f513"
            ],
            "sender": "0xa94f5374fce5edbc8e2a8697c15331677e6ebf0b",
            "secretKey": "0x45a915e4d060149eb4365960e6a7a45f334393093061116b197e3240065ff2d8"
        },
        "post": {
            "Prague": [
                {
                    "hash": "0x2b6a5d48152deeeb9a1a714b2521c07a08f67826ac22f0025d54c0c7771b71bd",
                    "logs": "0x1dcc4de8dec75d7aab85b567b6ccd41ad312451b948a7413f0a142fd40d49347",
                    "txbytes": "0xf8a1800a8301f64a94100000000000000000000000000000000000100080b840000000000000000000000000000000000598c1367bbd9d3b73dfefb263a117bcdbcb4c7a282897d4a20589ad2ea80da73b23a465e2c291e7ef0fde593438f51325a0953aeb8594964950f961bd9b121d058634be7f54a5a053844d6ae0ce7893a2a1a0520a6fdf37bfda2a54fc5fa433876ab8ba9f1b1e81a2eb5510264b3ece5d19e5",
                    "indexes": {
                        "data": 0,
                        "gas": 0,
                        "value": 0
                    },
                    "state": {
                        "0x1000000000000000000000000000000000001000": {
                            "nonce": "0x01",
                            "balance": "0x00",
                            "code": "0x366000600037600060003660006000601061157cf16000553d6001553d600060003e3d600020600255",
                            "storage": {
                                "0x00": "0x01",
                                "0x01": "0x80",
                                "0x02": "0x012893657d8eb2efad4de0a91bcd0e39ad9837745dec3ea923737ea803fc8e3d"
                            }
                        },
                        "0xa94f5374fce5edbc8e2a8697c15331677e6ebf0b": {
                            "nonce": "0x01",
                            "balance": "0x0de0b6b3a755ad0c",
                            "code": "0x",
                            "storage": {}
                        },
                        "0x2adc25665018aa1fe0e6bc666dac8fc2697ff9ba": {
                            "nonce": "0x00",
                            "balance": "0x044c16",
                            "code": "0x",
                            "storage": {}
                        }
                    }
                }
            ]
        },
        "config": {
            "blobSchedule": {
                "Cancun": {
                    "target": "0x03",
                    "max": "0x06",
                    "baseFeeUpdateFraction": "0x32f0ed"
                },
                "Prague": {
                    "target": "0x06",
                    "max": "0x09",
                    "baseFeeUpdateFraction": "0x4c6964"
                }
            },
            "chainid": "0x01"
        },
        "_info": {
            "hash": "0x1ff42bad628441a1801a9cf98ca26ef79b9ddb30b2eba9cf301408faad806842",
            "comment": "`execution-spec-tests` generated test",
            "filling-transition-tool": "ethereum-spec-evm-resolver 0.0.5",
            "description": "Test the BLS12_MAP_FP_TO_G1 precompile with isogeny kernel inputs.\n\n    The isogeny kernel is simply the set of special field values, that after the two step mapping\n    (first SWU onto an auxiliary curve, then an 11-degree isogeny back to G1), collapse exactly\n    to the identity point.\n\n    Please proceed to the generator in `helpers.py` to see how the isogeny kernel values are\n    generated.",
            "url": "https://github.com/ethereum/execution-spec-tests/blob/0044e83ccf97e84932e663ed1441d08efa019e26/tests/prague/eip2537_bls_12_381_precompiles/test_bls12_map_fp_to_g1.py#L74",
            "fixture-format": "state_test",
            "reference-spec": "https://github.com/ethereum/EIPs/blob/master/EIPS/eip-2537.md",
            "reference-spec-version": "c561ec1426fe5ec470eade499a0bd4174f270583",
            "eels-resolution": {
                "git-url": "https://github.com/marioevz/execution-specs.git",
                "branch": "forks/bpo1",
                "commit": "3387e5f4aedfe99becfdc39b444d6371e25e0924"
            }
        }
    },
    "tests/prague/eip2537_bls_12_381_precompiles/test_bls12_map_fp_to_g1.py::test_isogeny_kernel_values[fork_Prague-state_test-isogeny_kernel_2--]": {
        "env": {
            "currentCoinbase": "0x2adc25665018aa1fe0e6bc666dac8fc2697ff9ba",
            "currentGasLimit": "0x055d4a80",
            "currentNumber": "0x01",
            "currentTimestamp": "0x03e8",
            "currentRandom": "0x0000000000000000000000000000000000000000000000000000000000000000",
            "currentDifficulty": "0x00",
            "currentBaseFee": "0x07",
            "currentExcessBlobGas": "0x00"
        },
        "pre": {
            "0x1000000000000000000000000000000000001000": {
                "nonce": "0x01",
                "balance": "0x00",
                "code": "0x366000600037600060003660006000601061157cf16000553d6001553d600060003e3d600020600255",
                "storage": {}
            },
            "0xa94f5374fce5edbc8e2a8697c15331677e6ebf0b": {
                "nonce": "0x00",
                "balance": "0x0de0b6b3a7640000",
                "code": "0x",
                "storage": {}
            }
        },
        "transaction": {
            "nonce": "0x00",
            "gasPrice": "0x0a",
            "gasLimit": [
                "0x01f64a"
            ],
            "to": "0x1000000000000000000000000000000000001000",
            "value": [
                "0x00"
            ],
            "data": [
                "0x00000000000000000000000000000000068951d10be6961019aa800a51cf48b707fc9e40700510406be9242d0c8dd866afdec0d66f9dc2cf1dc944702ec161bb"
            ],
            "sender": "0xa94f5374fce5edbc8e2a8697c15331677e6ebf0b",
            "secretKey": "0x45a915e4d060149eb4365960e6a7a45f334393093061116b197e3240065ff2d8"
        },
        "post": {
            "Prague": [
                {
                    "hash": "0x2b6a5d48152deeeb9a1a714b2521c07a08f67826ac22f0025d54c0c7771b71bd",
                    "logs": "0x1dcc4de8dec75d7aab85b567b6ccd41ad312451b948a7413f0a142fd40d49347",
                    "txbytes": "0xf8a1800a8301f64a94100000000000000000000000000000000000100080b84000000000000000000000000000000000068951d10be6961019aa800a51cf48b707fc9e40700510406be9242d0c8dd866afdec0d66f9dc2cf1dc944702ec161bb25a06f69fc64735e701dbe7cf6660f82a26b01bc8eb8354c99e421dc40bca34adfe3a00a70acb0f448fd789627deaf0a53f0611961ed161de18461ff557b9dd93ac242",
                    "indexes": {
                        "data": 0,
                        "gas": 0,
                        "value": 0
                    },
                    "state": {
                        "0x1000000000000000000000000000000000001000": {
                            "nonce": "0x01",
                            "balance": "0x00",
                            "code": "0x366000600037600060003660006000601061157cf16000553d6001553d600060003e3d600020600255",
                            "storage": {
                                "0x00": "0x01",
                                "0x01": "0x80",
                                "0x02": "0x012893657d8eb2efad4de0a91bcd0e39ad9837745dec3ea923737ea803fc8e3d"
                            }
                        },
                        "0xa94f5374fce5edbc8e2a8697c15331677e6ebf0b": {
                            "nonce": "0x01",
                            "balance": "0x0de0b6b3a755ad0c",
                            "code": "0x",
                            "storage": {}
                        },
                        "0x2adc25665018aa1fe0e6bc666dac8fc2697ff9ba": {
                            "nonce": "0x00",
                            "balance": "0x044c16",
                            "code": "0x",
                            "storage": {}
                        }
                    }
                }
            ]
        },
        "config": {
            "blobSchedule": {
                "Cancun": {
                    "target": "0x03",
                    "max": "0x06",
                    "baseFeeUpdateFraction": "0x32f0ed"
                },
                "Prague": {
                    "target": "0x06",
                    "max": "0x09",
                    "baseFeeUpdateFraction": "0x4c6964"
                }
            },
            "chainid": "0x01"
        },
        "_info": {
            "hash": "0x7910fd2bb115d9e20816836411a513208eeeea3936632563bc0e6fe0bac270a4",
            "comment": "`execution-spec-tests` generated test",
            "filling-transition-tool": "ethereum-spec-evm-resolver 0.0.5",
            "description": "Test the BLS12_MAP_FP_TO_G1 precompile with isogeny kernel inputs.\n\n    The isogeny kernel is simply the set of special field values, that after the two step mapping\n    (first SWU onto an auxiliary curve, then an 11-degree isogeny back to G1), collapse exactly\n    to the identity point.\n\n    Please proceed to the generator in `helpers.py` to see how the isogeny kernel values are\n    generated.",
            "url": "https://github.com/ethereum/execution-spec-tests/blob/0044e83ccf97e84932e663ed1441d08efa019e26/tests/prague/eip2537_bls_12_381_precompiles/test_bls12_map_fp_to_g1.py#L74",
            "fixture-format": "state_test",
            "reference-spec": "https://github.com/ethereum/EIPs/blob/master/EIPS/eip-2537.md",
            "reference-spec-version": "c561ec1426fe5ec470eade499a0bd4174f270583",
            "eels-resolution": {
                "git-url": "https://github.com/marioevz/execution-specs.git",
                "branch": "forks/bpo1",
                "commit": "3387e5f4aedfe99becfdc39b444d6371e25e0924"
            }
        }
    },
    "tests/prague/eip2537_bls_12_381_precompiles/test_bls12_map_fp_to_g1.py::test_isogeny_kernel_values[fork_Prague-state_test-isogeny_kernel_3--]": {
        "env": {
            "currentCoinbase": "0x2adc25665018aa1fe0e6bc666dac8fc2697ff9ba",
            "currentGasLimit": "0x055d4a80",
            "currentNumber": "0x01",
            "currentTimestamp": "0x03e8",
            "currentRandom": "0x0000000000000000000000000000000000000000000000000000000000000000",
            "currentDifficulty": "0x00",
            "currentBaseFee": "0x07",
            "currentExcessBlobGas": "0x00"
        },
        "pre": {
            "0x1000000000000000000000000000000000001000": {
                "nonce": "0x01",
                "balance": "0x00",
                "code": "0x366000600037600060003660006000601061157cf16000553d6001553d600060003e3d600020600255",
                "storage": {}
            },
            "0xa94f5374fce5edbc8e2a8697c15331677e6ebf0b": {
                "nonce": "0x00",
                "balance": "0x0de0b6b3a7640000",
                "code": "0x",
                "storage": {}
            }
        },
        "transaction": {
            "nonce": "0x00",
            "gasPrice": "0x0a",
            "gasLimit": [
                "0x01f64a"
            ],
            "to": "0x1000000000000000000000000000000000001000",
            "value": [
                "0x00"
            ],
            "data": [
                "0x000000000000000000000000000000000a2605e5991fcf3e63728a7a1468d79bacaa5f23f3816aadcd38efdd330c6d4f5bbf450f92156e0e23e16e3252bcd042"
            ],
            "sender": "0xa94f5374fce5edbc8e2a8697c15331677e6ebf0b",
            "secretKey": "0x45a915e4d060149eb4365960e6a7a45f334393093061116b197e3240065ff2d8"
        },
        "post": {
            "Prague": [
                {
                    "hash": "0x2b6a5d48152deeeb9a1a714b2521c07a08f67826ac22f0025d54c0c7771b71bd",
                    "logs": "0x1dcc4de8dec75d7aab85b567b6ccd41ad312451b948a7413f0a142fd40d49347",
                    "txbytes": "0xf8a1800a8301f64a94100000000000000000000000000000000000100080b840000000000000000000000000000000000a2605e5991fcf3e63728a7a1468d79bacaa5f23f3816aadcd38efdd330c6d4f5bbf450f92156e0e23e16e3252bcd04225a0a19b37802a2b2c4eef2db4000ebe84ee2707d29edd86b3efdbd52853d788147fa05e37d4719e0bb790561a88abc5e77fe87884f23d9137bc47160790ca6a8c5da4",
                    "indexes": {
                        "data": 0,
                        "gas": 0,
                        "value": 0
                    },
                    "state": {
                        "0x1000000000000000000000000000000000001000": {
                            "nonce": "0x01",
                            "balance": "0x00",
                            "code": "0x366000600037600060003660006000601061157cf16000553d6001553d600060003e3d600020600255",
                            "storage": {
                                "0x00": "0x01",
                                "0x01": "0x80",
                                "0x02": "0x012893657d8eb2efad4de0a91bcd0e39ad9837745dec3ea923737ea803fc8e3d"
                            }
                        },
                        "0xa94f5374fce5edbc8e2a8697c15331677e6ebf0b": {
                            "nonce": "0x01",
                            "balance": "0x0de0b6b3a755ad0c",
                            "code": "0x",
                            "storage": {}
                        },
                        "0x2adc25665018aa1fe0e6bc666dac8fc2697ff9ba": {
                            "nonce": "0x00",
                            "balance": "0x044c16",
                            "code": "0x",
                            "storage": {}
                        }
                    }
                }
            ]
        },
        "config": {
            "blobSchedule": {
                "Cancun": {
                    "target": "0x03",
                    "max": "0x06",
                    "baseFeeUpdateFraction": "0x32f0ed"
                },
                "Prague": {
                    "target": "0x06",
                    "max": "0x09",
                    "baseFeeUpdateFraction": "0x4c6964"
                }
            },
            "chainid": "0x01"
        },
        "_info": {
            "hash": "0x654bf3e1d01eedf8514f9e0476a14db0f6861ae807570f501ad12306d17741ec",
            "comment": "`execution-spec-tests` generated test",
            "filling-transition-tool": "ethereum-spec-evm-resolver 0.0.5",
            "description": "Test the BLS12_MAP_FP_TO_G1 precompile with isogeny kernel inputs.\n\n    The isogeny kernel is simply the set of special field values, that after the two step mapping\n    (first SWU onto an auxiliary curve, then an 11-degree isogeny back to G1), collapse exactly\n    to the identity point.\n\n    Please proceed to the generator in `helpers.py` to see how the isogeny kernel values are\n    generated.",
            "url": "https://github.com/ethereum/execution-spec-tests/blob/0044e83ccf97e84932e663ed1441d08efa019e26/tests/prague/eip2537_bls_12_381_precompiles/test_bls12_map_fp_to_g1.py#L74",
            "fixture-format": "state_test",
            "reference-spec": "https://github.com/ethereum/EIPs/blob/master/EIPS/eip-2537.md",
            "reference-spec-version": "c561ec1426fe5ec470eade499a0bd4174f270583",
            "eels-resolution": {
                "git-url": "https://github.com/marioevz/execution-specs.git",
                "branch": "forks/bpo1",
                "commit": "3387e5f4aedfe99becfdc39b444d6371e25e0924"
            }
        }
    },
    "tests/prague/eip2537_bls_12_381_precompiles/test_bls12_map_fp_to_g1.py::test_isogeny_kernel_values[fork_Prague-state_test-isogeny_kernel_4--]": {
        "env": {
            "currentCoinbase": "0x2adc25665018aa1fe0e6bc666dac8fc2697ff9ba",
            "currentGasLimit": "0x055d4a80",
            "currentNumber": "0x01",
            "currentTimestamp": "0x03e8",
            "currentRandom": "0x0000000000000000000000000000000000000000000000000000000000000000",
            "currentDifficulty": "0x00",
            "currentBaseFee": "0x07",
            "currentExcessBlobGas": "0x00"
        },
        "pre": {
            "0x1000000000000000000000000000000000001000": {
                "nonce": "0x01",
                "balance": "0x00",
                "code": "0x366000600037600060003660006000601061157cf16000553d6001553d600060003e3d600020600255",
                "storage": {}
            },
            "0xa94f5374fce5edbc8e2a8697c15331677e6ebf0b": {
                "nonce": "0x00",
                "balance": "0x0de0b6b3a7640000",
                "code": "0x",
                "storage": {}
            }
        },
        "transaction": {
            "nonce": "0x00",
            "gasPrice": "0x0a",
            "gasLimit": [
                "0x01f64a"
            ],
            "to": "0x1000000000000000000000000000000000001000",
            "value": [
                "0x00"
            ],
            "data": [
                "0x000000000000000000000000000000000ec1d2551f80abe70136a7f42e52133ebddf9b619a88147ae422a98e57581f2b0961dc019c74599f12a1b5513649a2e8"
            ],
            "sender": "0xa94f5374fce5edbc8e2a8697c15331677e6ebf0b",
            "secretKey": "0x45a915e4d060149eb4365960e6a7a45f334393093061116b197e3240065ff2d8"
        },
        "post": {
            "Prague": [
                {
                    "hash": "0x2b6a5d48152deeeb9a1a714b2521c07a08f67826ac22f0025d54c0c7771b71bd",
                    "logs": "0x1dcc4de8dec75d7aab85b567b6ccd41ad312451b948a7413f0a142fd40d49347",
                    "txbytes": "0xf8a1800a8301f64a94100000000000000000000000000000000000100080b840000000000000000000000000000000000ec1d2551f80abe70136a7f42e52133ebddf9b619a88147ae422a98e57581f2b0961dc019c74599f12a1b5513649a2e826a0f0b044feea9431bd05e047b3f7f50f7e51e9f090dea35d5a8aeb449381976821a04aff2a63429054644e16683018c2f09c88d9425b91b71344b38d2063dc435830",
                    "indexes": {
                        "data": 0,
                        "gas": 0,
                        "value": 0
                    },
                    "state": {
                        "0x1000000000000000000000000000000000001000": {
                            "nonce": "0x01",
                            "balance": "0x00",
                            "code": "0x366000600037600060003660006000601061157cf16000553d6001553d600060003e3d600020600255",
                            "storage": {
                                "0x00": "0x01",
                                "0x01": "0x80",
                                "0x02": "0x012893657d8eb2efad4de0a91bcd0e39ad9837745dec3ea923737ea803fc8e3d"
                            }
                        },
                        "0xa94f5374fce5edbc8e2a8697c15331677e6ebf0b": {
                            "nonce": "0x01",
                            "balance": "0x0de0b6b3a755ad0c",
                            "code": "0x",
                            "storage": {}
                        },
                        "0x2adc25665018aa1fe0e6bc666dac8fc2697ff9ba": {
                            "nonce": "0x00",
                            "balance": "0x044c16",
                            "code": "0x",
                            "storage": {}
                        }
                    }
                }
            ]
        },
        "config": {
            "blobSchedule": {
                "Cancun": {
                    "target": "0x03",
                    "max": "0x06",
                    "baseFeeUpdateFraction": "0x32f0ed"
                },
                "Prague": {
                    "target": "0x06",
                    "max": "0x09",
                    "baseFeeUpdateFraction": "0x4c6964"
                }
            },
            "chainid": "0x01"
        },
        "_info": {
            "hash": "0xeb5bffbdf7ee13e4d2b521b78b7538b74d00e3a2eb5237184d86a7f429f61a79",
            "comment": "`execution-spec-tests` generated test",
            "filling-transition-tool": "ethereum-spec-evm-resolver 0.0.5",
            "description": "Test the BLS12_MAP_FP_TO_G1 precompile with isogeny kernel inputs.\n\n    The isogeny kernel is simply the set of special field values, that after the two step mapping\n    (first SWU onto an auxiliary curve, then an 11-degree isogeny back to G1), collapse exactly\n    to the identity point.\n\n    Please proceed to the generator in `helpers.py` to see how the isogeny kernel values are\n    generated.",
            "url": "https://github.com/ethereum/execution-spec-tests/blob/0044e83ccf97e84932e663ed1441d08efa019e26/tests/prague/eip2537_bls_12_381_precompiles/test_bls12_map_fp_to_g1.py#L74",
            "fixture-format": "state_test",
            "reference-spec": "https://github.com/ethereum/EIPs/blob/master/EIPS/eip-2537.md",
            "reference-spec-version": "c561ec1426fe5ec470eade499a0bd4174f270583",
            "eels-resolution": {
                "git-url": "https://github.com/marioevz/execution-specs.git",
                "branch": "forks/bpo1",
                "commit": "3387e5f4aedfe99becfdc39b444d6371e25e0924"
            }
        }
    },
    "tests/prague/eip2537_bls_12_381_precompiles/test_bls12_map_fp_to_g1.py::test_isogeny_kernel_values[fork_Prague-state_test-isogeny_kernel_5--]": {
        "env": {
            "currentCoinbase": "0x2adc25665018aa1fe0e6bc666dac8fc2697ff9ba",
            "currentGasLimit": "0x055d4a80",
            "currentNumber": "0x01",
            "currentTimestamp": "0x03e8",
            "currentRandom": "0x0000000000000000000000000000000000000000000000000000000000000000",
            "currentDifficulty": "0x00",
            "currentBaseFee": "0x07",
            "currentExcessBlobGas": "0x00"
        },
        "pre": {
            "0x1000000000000000000000000000000000001000": {
                "nonce": "0x01",
                "balance": "0x00",
                "code": "0x366000600037600060003660006000601061157cf16000553d6001553d600060003e3d600020600255",
                "storage": {}
            },
            "0xa94f5374fce5edbc8e2a8697c15331677e6ebf0b": {
                "nonce": "0x00",
                "balance": "0x0de0b6b3a7640000",
                "code": "0x",
                "storage": {}
            }
        },
        "transaction": {
            "nonce": "0x00",
            "gasPrice": "0x0a",
            "gasLimit": [
                "0x01f64a"
            ],
            "to": "0x1000000000000000000000000000000000001000",
            "value": [
                "0x00"
            ],
            "data": [
                "0x00000000000000000000000000000000146850b3bdc2495ed73bb803dfaa951a88abff0acb5c7aeac52b48f3c808e87ce3885b98ce916e17caef21a6cbc6b598"
            ],
            "sender": "0xa94f5374fce5edbc8e2a8697c15331677e6ebf0b",
            "secretKey": "0x45a915e4d060149eb4365960e6a7a45f334393093061116b197e3240065ff2d8"
        },
        "post": {
            "Prague": [
                {
                    "hash": "0x2b6a5d48152deeeb9a1a714b2521c07a08f67826ac22f0025d54c0c7771b71bd",
                    "logs": "0x1dcc4de8dec75d7aab85b567b6ccd41ad312451b948a7413f0a142fd40d49347",
                    "txbytes": "0xf8a1800a8301f64a94100000000000000000000000000000000000100080b84000000000000000000000000000000000146850b3bdc2495ed73bb803dfaa951a88abff0acb5c7aeac52b48f3c808e87ce3885b98ce916e17caef21a6cbc6b59826a01d21d3005bf8c14dc964359540a23d09e397bc84190d328457e9050deba14a27a04f4baac507550fa2171acfab5f008719c40f194185f774d1808f74d8f180ffca",
                    "indexes": {
                        "data": 0,
                        "gas": 0,
                        "value": 0
                    },
                    "state": {
                        "0x1000000000000000000000000000000000001000": {
                            "nonce": "0x01",
                            "balance": "0x00",
                            "code": "0x366000600037600060003660006000601061157cf16000553d6001553d600060003e3d600020600255",
                            "storage": {
                                "0x00": "0x01",
                                "0x01": "0x80",
                                "0x02": "0x012893657d8eb2efad4de0a91bcd0e39ad9837745dec3ea923737ea803fc8e3d"
                            }
                        },
                        "0xa94f5374fce5edbc8e2a8697c15331677e6ebf0b": {
                            "nonce": "0x01",
                            "balance": "0x0de0b6b3a755ad0c",
                            "code": "0x",
                            "storage": {}
                        },
                        "0x2adc25665018aa1fe0e6bc666dac8fc2697ff9ba": {
                            "nonce": "0x00",
                            "balance": "0x044c16",
                            "code": "0x",
                            "storage": {}
                        }
                    }
                }
            ]
        },
        "config": {
            "blobSchedule": {
                "Cancun": {
                    "target": "0x03",
                    "max": "0x06",
                    "baseFeeUpdateFraction": "0x32f0ed"
                },
                "Prague": {
                    "target": "0x06",
                    "max": "0x09",
                    "baseFeeUpdateFraction": "0x4c6964"
                }
            },
            "chainid": "0x01"
        },
        "_info": {
            "hash": "0xef0ef0b43cd16794006d518de474bc967ecb885e58354668673ab2552578afea",
            "comment": "`execution-spec-tests` generated test",
            "filling-transition-tool": "ethereum-spec-evm-resolver 0.0.5",
            "description": "Test the BLS12_MAP_FP_TO_G1 precompile with isogeny kernel inputs.\n\n    The isogeny kernel is simply the set of special field values, that after the two step mapping\n    (first SWU onto an auxiliary curve, then an 11-degree isogeny back to G1), collapse exactly\n    to the identity point.\n\n    Please proceed to the generator in `helpers.py` to see how the isogeny kernel values are\n    generated.",
            "url": "https://github.com/ethereum/execution-spec-tests/blob/0044e83ccf97e84932e663ed1441d08efa019e26/tests/prague/eip2537_bls_12_381_precompiles/test_bls12_map_fp_to_g1.py#L74",
            "fixture-format": "state_test",
            "reference-spec": "https://github.com/ethereum/EIPs/blob/master/EIPS/eip-2537.md",
            "reference-spec-version": "c561ec1426fe5ec470eade499a0bd4174f270583",
            "eels-resolution": {
                "git-url": "https://github.com/marioevz/execution-specs.git",
                "branch": "forks/bpo1",
                "commit": "3387e5f4aedfe99becfdc39b444d6371e25e0924"
            }
        }
    },
    "tests/prague/eip2537_bls_12_381_precompiles/test_bls12_map_fp_to_g1.py::test_isogeny_kernel_values[fork_Prague-state_test-isogeny_kernel_6--]": {
        "env": {
            "currentCoinbase": "0x2adc25665018aa1fe0e6bc666dac8fc2697ff9ba",
            "currentGasLimit": "0x055d4a80",
            "currentNumber": "0x01",
            "currentTimestamp": "0x03e8",
            "currentRandom": "0x0000000000000000000000000000000000000000000000000000000000000000",
            "currentDifficulty": "0x00",
            "currentBaseFee": "0x07",
            "currentExcessBlobGas": "0x00"
        },
        "pre": {
            "0x1000000000000000000000000000000000001000": {
                "nonce": "0x01",
                "balance": "0x00",
                "code": "0x366000600037600060003660006000601061157cf16000553d6001553d600060003e3d600020600255",
                "storage": {}
            },
            "0xa94f5374fce5edbc8e2a8697c15331677e6ebf0b": {
                "nonce": "0x00",
                "balance": "0x0de0b6b3a7640000",
                "code": "0x",
                "storage": {}
            }
        },
        "transaction": {
            "nonce": "0x00",
            "gasPrice": "0x0a",
            "gasLimit": [
                "0x01f64a"
            ],
            "to": "0x1000000000000000000000000000000000001000",
            "value": [
                "0x00"
            ],
            "data": [
                "0x000000000000000000000000000000001377c0192d99508a317127abf17c64205c7aad448380027efb47ae73ea231dbd6ecd3f2841b63d309c35bb8fd13e48f0"
            ],
            "sender": "0xa94f5374fce5edbc8e2a8697c15331677e6ebf0b",
            "secretKey": "0x45a915e4d060149eb4365960e6a7a45f334393093061116b197e3240065ff2d8"
        },
        "post": {
            "Prague": [
                {
                    "hash": "0x2b6a5d48152deeeb9a1a714b2521c07a08f67826ac22f0025d54c0c7771b71bd",
                    "logs": "0x1dcc4de8dec75d7aab85b567b6ccd41ad312451b948a7413f0a142fd40d49347",
                    "txbytes": "0xf8a1800a8301f64a94100000000000000000000000000000000000100080b840000000000000000000000000000000001377c0192d99508a317127abf17c64205c7aad448380027efb47ae73ea231dbd6ecd3f2841b63d309c35bb8fd13e48f025a0d520a5ea76a12014b566b9fb82d267cd747f06bf1852407191a99d351d98c02ca04909cd67186e8b6dd13bacca64d8601e7a942a0bac1c587e55ffab83880962c7",
                    "indexes": {
                        "data": 0,
                        "gas": 0,
                        "value": 0
                    },
                    "state": {
                        "0x1000000000000000000000000000000000001000": {
                            "nonce": "0x01",
                            "balance": "0x00",
                            "code": "0x366000600037600060003660006000601061157cf16000553d6001553d600060003e3d600020600255",
                            "storage": {
                                "0x00": "0x01",
                                "0x01": "0x80",
                                "0x02": "0x012893657d8eb2efad4de0a91bcd0e39ad9837745dec3ea923737ea803fc8e3d"
                            }
                        },
                        "0xa94f5374fce5edbc8e2a8697c15331677e6ebf0b": {
                            "nonce": "0x01",
                            "balance": "0x0de0b6b3a755ad0c",
                            "code": "0x",
                            "storage": {}
                        },
                        "0x2adc25665018aa1fe0e6bc666dac8fc2697ff9ba": {
                            "nonce": "0x00",
                            "balance": "0x044c16",
                            "code": "0x",
                            "storage": {}
                        }
                    }
                }
            ]
        },
        "config": {
            "blobSchedule": {
                "Cancun": {
                    "target": "0x03",
                    "max": "0x06",
                    "baseFeeUpdateFraction": "0x32f0ed"
                },
                "Prague": {
                    "target": "0x06",
                    "max": "0x09",
                    "baseFeeUpdateFraction": "0x4c6964"
                }
            },
            "chainid": "0x01"
        },
        "_info": {
            "hash": "0xf0520423cba332d06a0dea2cc0ede80c2cc13a3b09a41ad0380879bdeb6324fd",
            "comment": "`execution-spec-tests` generated test",
            "filling-transition-tool": "ethereum-spec-evm-resolver 0.0.5",
            "description": "Test the BLS12_MAP_FP_TO_G1 precompile with isogeny kernel inputs.\n\n    The isogeny kernel is simply the set of special field values, that after the two step mapping\n    (first SWU onto an auxiliary curve, then an 11-degree isogeny back to G1), collapse exactly\n    to the identity point.\n\n    Please proceed to the generator in `helpers.py` to see how the isogeny kernel values are\n    generated.",
            "url": "https://github.com/ethereum/execution-spec-tests/blob/0044e83ccf97e84932e663ed1441d08efa019e26/tests/prague/eip2537_bls_12_381_precompiles/test_bls12_map_fp_to_g1.py#L74",
            "fixture-format": "state_test",
            "reference-spec": "https://github.com/ethereum/EIPs/blob/master/EIPS/eip-2537.md",
            "reference-spec-version": "c561ec1426fe5ec470eade499a0bd4174f270583",
            "eels-resolution": {
                "git-url": "https://github.com/marioevz/execution-specs.git",
                "branch": "forks/bpo1",
                "commit": "3387e5f4aedfe99becfdc39b444d6371e25e0924"
            }
        }
    },
    "tests/prague/eip2537_bls_12_381_precompiles/test_bls12_map_fp_to_g1.py::test_isogeny_kernel_values[fork_Prague-state_test-isogeny_kernel_7--]": {
        "env": {
            "currentCoinbase": "0x2adc25665018aa1fe0e6bc666dac8fc2697ff9ba",
            "currentGasLimit": "0x055d4a80",
            "currentNumber": "0x01",
            "currentTimestamp": "0x03e8",
            "currentRandom": "0x0000000000000000000000000000000000000000000000000000000000000000",
            "currentDifficulty": "0x00",
            "currentBaseFee": "0x07",
            "currentExcessBlobGas": "0x00"
        },
        "pre": {
            "0x1000000000000000000000000000000000001000": {
                "nonce": "0x01",
                "balance": "0x00",
                "code": "0x366000600037600060003660006000601061157cf16000553d6001553d600060003e3d600020600255",
                "storage": {}
            },
            "0xa94f5374fce5edbc8e2a8697c15331677e6ebf0b": {
                "nonce": "0x00",
                "balance": "0x0de0b6b3a7640000",
                "code": "0x",
                "storage": {}
            }
        },
        "transaction": {
            "nonce": "0x00",
            "gasPrice": "0x0a",
            "gasLimit": [
                "0x01f62c"
            ],
            "to": "0x1000000000000000000000000000000000001000",
            "value": [
                "0x00"
            ],
            "data": [
                "0x000000000000000000000000000000000fdb0c04a060175be7a91d3c2ee2d53bb7ccec610003a81199f7e2c3c3a488d4c2ecbaef1f3e91f1961d91cdad42da69"
            ],
            "sender": "0xa94f5374fce5edbc8e2a8697c15331677e6ebf0b",
            "secretKey": "0x45a915e4d060149eb4365960e6a7a45f334393093061116b197e3240065ff2d8"
        },
        "post": {
            "Prague": [
                {
                    "hash": "0x33a76af930280f3d9c7f274d06b2036771ba5471d899ed98a1083a0a0b0648a3",
                    "logs": "0x1dcc4de8dec75d7aab85b567b6ccd41ad312451b948a7413f0a142fd40d49347",
                    "txbytes": "0xf8a1800a8301f62c94100000000000000000000000000000000000100080b840000000000000000000000000000000000fdb0c04a060175be7a91d3c2ee2d53bb7ccec610003a81199f7e2c3c3a488d4c2ecbaef1f3e91f1961d91cdad42da6925a028690bb9d53b9fec91995b5477bebbbc05a6ea99fcfbd952be569228fe0d4c35a0283abfdcfabeca6b9b030e04c2a98fbf6f31c1e46ec77102c0296d0cd1266a40",
                    "indexes": {
                        "data": 0,
                        "gas": 0,
                        "value": 0
                    },
                    "state": {
                        "0x1000000000000000000000000000000000001000": {
                            "nonce": "0x01",
                            "balance": "0x00",
                            "code": "0x366000600037600060003660006000601061157cf16000553d6001553d600060003e3d600020600255",
                            "storage": {
                                "0x00": "0x01",
                                "0x01": "0x80",
                                "0x02": "0x012893657d8eb2efad4de0a91bcd0e39ad9837745dec3ea923737ea803fc8e3d"
                            }
                        },
                        "0xa94f5374fce5edbc8e2a8697c15331677e6ebf0b": {
                            "nonce": "0x01",
                            "balance": "0x0de0b6b3a755ad84",
                            "code": "0x",
                            "storage": {}
                        },
                        "0x2adc25665018aa1fe0e6bc666dac8fc2697ff9ba": {
                            "nonce": "0x00",
                            "balance": "0x044bf2",
                            "code": "0x",
                            "storage": {}
                        }
                    }
                }
            ]
        },
        "config": {
            "blobSchedule": {
                "Cancun": {
                    "target": "0x03",
                    "max": "0x06",
                    "baseFeeUpdateFraction": "0x32f0ed"
                },
                "Prague": {
                    "target": "0x06",
                    "max": "0x09",
                    "baseFeeUpdateFraction": "0x4c6964"
                }
            },
            "chainid": "0x01"
        },
        "_info": {
            "hash": "0x9ad3a044ed0352574ad0fb25ec8675d7c1c8af30ed0e405c75c56d623cd60efb",
            "comment": "`execution-spec-tests` generated test",
            "filling-transition-tool": "ethereum-spec-evm-resolver 0.0.5",
            "description": "Test the BLS12_MAP_FP_TO_G1 precompile with isogeny kernel inputs.\n\n    The isogeny kernel is simply the set of special field values, that after the two step mapping\n    (first SWU onto an auxiliary curve, then an 11-degree isogeny back to G1), collapse exactly\n    to the identity point.\n\n    Please proceed to the generator in `helpers.py` to see how the isogeny kernel values are\n    generated.",
            "url": "https://github.com/ethereum/execution-spec-tests/blob/0044e83ccf97e84932e663ed1441d08efa019e26/tests/prague/eip2537_bls_12_381_precompiles/test_bls12_map_fp_to_g1.py#L74",
            "fixture-format": "state_test",
            "reference-spec": "https://github.com/ethereum/EIPs/blob/master/EIPS/eip-2537.md",
            "reference-spec-version": "c561ec1426fe5ec470eade499a0bd4174f270583",
            "eels-resolution": {
                "git-url": "https://github.com/marioevz/execution-specs.git",
                "branch": "forks/bpo1",
                "commit": "3387e5f4aedfe99becfdc39b444d6371e25e0924"
            }
        }
    }
}