{
    "tests/cancun/eip1153_tstore/test_tstorage.py::test_tload_after_sstore[fork_Cancun-state_test]": {
        "env": {
            "currentCoinbase": "0x2adc25665018aa1fe0e6bc666dac8fc2697ff9ba",
            "currentGasLimit": "0x055d4a80",
            "currentNumber": "0x01",
            "currentTimestamp": "0x03e8",
            "currentRandom": "0x0000000000000000000000000000000000000000000000000000000000000000",
            "currentDifficulty": "0x00",
            "currentBaseFee": "0x07",
            "currentExcessBlobGas": "0x00"
        },
        "pre": {
            "0x1000000000000000000000000000000000001000": {
                "nonce": "0x01",
                "balance": "0x00",
                "code": "0x60ff60005560005c60015560ff60025560025c60035560ff6fffffffffffffffffffffffffffffffff556fffffffffffffffffffffffffffffffff5c7001000000000000000000000000000000005560ff7ffffffffffffffffffffffffffffffffffffffffffffffffffffffffffffffffe557ffffffffffffffffffffffffffffffffffffffffffffffffffffffffffffffffe5c7fffffffffffffffffffffffffffffffffffffffffffffffffffffffffffffffff55",
                "storage": {
                    "0x01": "0x01",
                    "0x03": "0x01",
                    "0x0100000000000000000000000000000000": "0x01",
                    "0xffffffffffffffffffffffffffffffffffffffffffffffffffffffffffffffff": "0x01"
                }
            },
            "0xa94f5374fce5edbc8e2a8697c15331677e6ebf0b": {
                "nonce": "0x00",
                "balance": "0x3635c9adc5dea00000",
                "code": "0x",
                "storage": {}
            }
        },
        "transaction": {
            "nonce": "0x00",
            "gasPrice": "0x0a",
            "gasLimit": [
                "0x0f4240"
            ],
            "to": "0x1000000000000000000000000000000000001000",
            "value": [
                "0x00"
            ],
            "data": [
                "0x"
            ],
            "sender": "0xa94f5374fce5edbc8e2a8697c15331677e6ebf0b",
            "secretKey": "0x45a915e4d060149eb4365960e6a7a45f334393093061116b197e3240065ff2d8"
        },
        "post": {
            "Cancun": [
                {
                    "hash": "0x8276ffd99d2b8059bdae05750a18215adb08789048faa6d03943d6fcdf4a0d5d",
                    "logs": "0x1dcc4de8dec75d7aab85b567b6ccd41ad312451b948a7413f0a142fd40d49347",
                    "txbytes": "0xf860800a830f4240941000000000000000000000000000000000001000808026a0d14a8da0ebd0761712b3c343a6689e02129332b04561269b9ce2f5a80ae151aba025ccdfcf9b476d04830c6f51ba8bd1144514fdbd4b2de40a29679284ba9cdea3",
                    "indexes": {
                        "data": 0,
                        "gas": 0,
                        "value": 0
                    },
                    "state": {
                        "0x1000000000000000000000000000000000001000": {
                            "nonce": "0x01",
                            "balance": "0x00",
                            "code": "0x60ff60005560005c60015560ff60025560025c60035560ff6fffffffffffffffffffffffffffffffff556fffffffffffffffffffffffffffffffff5c7001000000000000000000000000000000005560ff7ffffffffffffffffffffffffffffffffffffffffffffffffffffffffffffffffe557ffffffffffffffffffffffffffffffffffffffffffffffffffffffffffffffffe5c7fffffffffffffffffffffffffffffffffffffffffffffffffffffffffffffffff55",
                            "storage": {
                                "0x00": "0xff",
                                "0x02": "0xff",
                                "0xffffffffffffffffffffffffffffffff": "0xff",
                                "0xfffffffffffffffffffffffffffffffffffffffffffffffffffffffffffffffe": "0xff"
                            }
                        },
                        "0xa94f5374fce5edbc8e2a8697c15331677e6ebf0b": {
                            "nonce": "0x01",
                            "balance": "0x3635c9adc5de8f1dd0",
                            "code": "0x",
                            "storage": {}
                        },
                        "0x2adc25665018aa1fe0e6bc666dac8fc2697ff9ba": {
                            "nonce": "0x00",
                            "balance": "0x0510a8",
                            "code": "0x",
                            "storage": {}
                        }
                    }
                }
            ]
        },
        "config": {
            "blobSchedule": {
                "Cancun": {
                    "target": "0x03",
                    "max": "0x06",
                    "baseFeeUpdateFraction": "0x32f0ed"
                }
            },
            "chainid": "0x01"
        },
        "_info": {
            "hash": "0x46ce1a1d17588933b7db8375f6697cbf28da1df03c958aefc2899de02cabf3ab",
            "comment": "`execution-spec-tests` generated test",
            "filling-transition-tool": "ethereum-spec-evm-resolver 0.0.5",
            "description": "Loading after storing returns the stored value: TSTORE(x, y), TLOAD(x)\n    returns y.\n\n    Based on [ethereum/tests/.../18_tloadAfterStoreFiller.yml](https://github.com/ethereum/tests/blob/9b00b68593f5869eb51a6659e1cc983e875e616b/src/EIPTestsFiller/StateTests/stEIP1153-transientStorage/18_tloadAfterStoreFiller.yml)\",",
            "url": "https://github.com/ethereum/execution-spec-tests/blob/20770a694f440aeb4ea3ec86a3b9bc04d40146a3/tests/cancun/eip1153_tstore/test_tstorage.py#L101",
            "fixture-format": "state_test",
            "reference-spec": "https://github.com/ethereum/EIPs/blob/master/EIPS/eip-1153.md",
            "reference-spec-version": "1eb863b534a5a3e19e9c196ab2a7f3db4bb9da17",
            "eels-resolution": {
                "git-url": "https://github.com/marioevz/execution-specs.git",
                "branch": "forks/bpo1",
                "commit": "3387e5f4aedfe99becfdc39b444d6371e25e0924"
            }
        }
    }
}