{
    "tests/prague/eip2537_bls_12_381_precompiles/test_bls12_g2mul.py::test_call_types[fork_Prague-state_test-two_times_inf-call_opcode_CALLCODE-]": {
        "env": {
            "currentCoinbase": "0x2adc25665018aa1fe0e6bc666dac8fc2697ff9ba",
            "currentGasLimit": "0x055d4a80",
            "currentNumber": "0x01",
            "currentTimestamp": "0x03e8",
            "currentRandom": "0x0000000000000000000000000000000000000000000000000000000000000000",
            "currentDifficulty": "0x00",
            "currentBaseFee": "0x07",
            "currentExcessBlobGas": "0x00"
        },
        "pre": {
            "0x1000000000000000000000000000000000001000": {
                "nonce": "0x01",
                "balance": "0x00",
                "code": "0x366000600037600060003660006000600e6157e4f26000553d6001553d600060003e3d600020600255",
                "storage": {}
            },
            "0xa94f5374fce5edbc8e2a8697c15331677e6ebf0b": {
                "nonce": "0x00",
                "balance": "0x0de0b6b3a7640000",
                "code": "0x",
                "storage": {}
            }
        },
        "transaction": {
            "nonce": "0x00",
            "gasPrice": "0x0a",
            "gasLimit": [
                "0x023c05"
            ],
            "to": "0x1000000000000000000000000000000000001000",
            "value": [
                "0x00"
            ],
            "data": [
                "0x000000000000000000000000000000000000000000000000000000000000000000000000000000000000000000000000000000000000000000000000000000000000000000000000000000000000000000000000000000000000000000000000000000000000000000000000000000000000000000000000000000000000000000000000000000000000000000000000000000000000000000000000000000000000000000000000000000000000000000000000000000000000000000000000000000000000000000000000000000000000000000000000000000000000000000000000000000000000000000000000000000000000000000000000000000000000000000000000000000000000000000000000000000000000000000000002"
            ],
            "sender": "0xa94f5374fce5edbc8e2a8697c15331677e6ebf0b",
            "secretKey": "0x45a915e4d060149eb4365960e6a7a45f334393093061116b197e3240065ff2d8"
        },
        "post": {
            "Prague": [
                {
                    "hash": "0x380b7f80e68444cf233e37ae106d7b3e22b9f60a5256b80bb792a3bfa7999fbf",
                    "logs": "0x1dcc4de8dec75d7aab85b567b6ccd41ad312451b948a7413f0a142fd40d49347",
                    "txbytes": "0xf90182800a83023c0594100000000000000000000000000000000000100080b9012000000000000000000000000000000000000000000000000000000000000000000000000000000000000000000000000000000000000000000000000000000000000000000000000000000000000000000000000000000000000000000000000000000000000000000000000000000000000000000000000000000000000000000000000000000000000000000000000000000000000000000000000000000000000000000000000000000000000000000000000000000000000000000000000000000000000000000000000000000000000000000000000000000000000000000000000000000000000000000000000000000000000000000000000000000000000000000000000000000000000000000000000000000000000000000000000226a00e3707d749bc0550455b49c2912f66977228e8fec6554a5864ae461fc7a3a4dfa021b58a5803808fb55f42cecb0a48124d0ad7e998ef4a5947b57a135514f851f8",
                    "indexes": {
                        "data": 0,
                        "gas": 0,
                        "value": 0
                    },
                    "state": {
                        "0x1000000000000000000000000000000000001000": {
                            "nonce": "0x01",
                            "balance": "0x00",
                            "code": "0x366000600037600060003660006000600e6157e4f26000553d6001553d600060003e3d600020600255",
                            "storage": {
                                "0x00": "0x01",
                                "0x01": "0x0100",
                                "0x02": "0xd397b3b043d87fcd6fad1291ff0bfd16401c274896d8c63a923727f077b8e0b5"
                            }
                        },
                        "0xa94f5374fce5edbc8e2a8697c15331677e6ebf0b": {
                            "nonce": "0x01",
                            "balance": "0x0de0b6b3a7530534",
                            "code": "0x",
                            "storage": {}
                        },
                        "0x2adc25665018aa1fe0e6bc666dac8fc2697ff9ba": {
                            "nonce": "0x00",
                            "balance": "0x05180a",
                            "code": "0x",
                            "storage": {}
                        }
                    }
                }
            ]
        },
        "config": {
            "blobSchedule": {
                "Cancun": {
                    "target": "0x03",
                    "max": "0x06",
                    "baseFeeUpdateFraction": "0x32f0ed"
                },
                "Prague": {
                    "target": "0x06",
                    "max": "0x09",
                    "baseFeeUpdateFraction": "0x4c6964"
                }
            },
            "chainid": "0x01"
        },
        "_info": {
            "hash": "0xb82a15e3fe2cb9a36ce4a36ac5c95bca5097c4fdc4871ce1c28929dd264d90cc",
            "comment": "`execution-spec-tests` generated test",
            "filling-transition-tool": "ethereum-spec-evm-resolver 0.0.5",
            "description": "Test the BLS12_G2MUL precompile using different call types.",
            "url": "https://github.com/ethereum/execution-spec-tests/blob/0044e83ccf97e84932e663ed1441d08efa019e26/tests/prague/eip2537_bls_12_381_precompiles/test_bls12_g2mul.py#L407",
            "fixture-format": "state_test",
            "reference-spec": "https://github.com/ethereum/EIPs/blob/master/EIPS/eip-2537.md",
            "reference-spec-version": "c561ec1426fe5ec470eade499a0bd4174f270583",
            "eels-resolution": {
                "git-url": "https://github.com/marioevz/execution-specs.git",
                "branch": "forks/bpo1",
                "commit": "3387e5f4aedfe99becfdc39b444d6371e25e0924"
            }
        }
    },
    "tests/prague/eip2537_bls_12_381_precompiles/test_bls12_g2mul.py::test_call_types[fork_Prague-state_test-two_times_inf-call_opcode_DELEGATECALL-]": {
        "env": {
            "currentCoinbase": "0x2adc25665018aa1fe0e6bc666dac8fc2697ff9ba",
            "currentGasLimit": "0x055d4a80",
            "currentNumber": "0x01",
            "currentTimestamp": "0x03e8",
            "currentRandom": "0x0000000000000000000000000000000000000000000000000000000000000000",
            "currentDifficulty": "0x00",
            "currentBaseFee": "0x07",
            "currentExcessBlobGas": "0x00"
        },
        "pre": {
            "0x1000000000000000000000000000000000001000": {
                "nonce": "0x01",
                "balance": "0x00",
                "code": "0x36600060003760006000366000600e6157e4f46000553d6001553d600060003e3d600020600255",
                "storage": {}
            },
            "0xa94f5374fce5edbc8e2a8697c15331677e6ebf0b": {
                "nonce": "0x00",
                "balance": "0x0de0b6b3a7640000",
                "code": "0x",
                "storage": {}
            }
        },
        "transaction": {
            "nonce": "0x00",
            "gasPrice": "0x0a",
            "gasLimit": [
                "0x023c05"
            ],
            "to": "0x1000000000000000000000000000000000001000",
            "value": [
                "0x00"
            ],
            "data": [
                "0x000000000000000000000000000000000000000000000000000000000000000000000000000000000000000000000000000000000000000000000000000000000000000000000000000000000000000000000000000000000000000000000000000000000000000000000000000000000000000000000000000000000000000000000000000000000000000000000000000000000000000000000000000000000000000000000000000000000000000000000000000000000000000000000000000000000000000000000000000000000000000000000000000000000000000000000000000000000000000000000000000000000000000000000000000000000000000000000000000000000000000000000000000000000000000000000002"
            ],
            "sender": "0xa94f5374fce5edbc8e2a8697c15331677e6ebf0b",
            "secretKey": "0x45a915e4d060149eb4365960e6a7a45f334393093061116b197e3240065ff2d8"
        },
        "post": {
            "Prague": [
                {
                    "hash": "0xbf223c4de4934be80d1879b05c28d4f332380e605a465cebff13ffca19b33c2a",
                    "logs": "0x1dcc4de8dec75d7aab85b567b6ccd41ad312451b948a7413f0a142fd40d49347",
                    "txbytes": "0xf90182800a83023c0594100000000000000000000000000000000000100080b9012000000000000000000000000000000000000000000000000000000000000000000000000000000000000000000000000000000000000000000000000000000000000000000000000000000000000000000000000000000000000000000000000000000000000000000000000000000000000000000000000000000000000000000000000000000000000000000000000000000000000000000000000000000000000000000000000000000000000000000000000000000000000000000000000000000000000000000000000000000000000000000000000000000000000000000000000000000000000000000000000000000000000000000000000000000000000000000000000000000000000000000000000000000000000000000000000226a00e3707d749bc0550455b49c2912f66977228e8fec6554a5864ae461fc7a3a4dfa021b58a5803808fb55f42cecb0a48124d0ad7e998ef4a5947b57a135514f851f8",
                    "indexes": {
                        "data": 0,
                        "gas": 0,
                        "value": 0
                    },
                    "state": {
                        "0x1000000000000000000000000000000000001000": {
                            "nonce": "0x01",
                            "balance": "0x00",
                            "code": "0x36600060003760006000366000600e6157e4f46000553d6001553d600060003e3d600020600255",
                            "storage": {
                                "0x00": "0x01",
                                "0x01": "0x0100",
                                "0x02": "0xd397b3b043d87fcd6fad1291ff0bfd16401c274896d8c63a923727f077b8e0b5"
                            }
                        },
                        "0xa94f5374fce5edbc8e2a8697c15331677e6ebf0b": {
                            "nonce": "0x01",
                            "balance": "0x0de0b6b3a7530552",
                            "code": "0x",
                            "storage": {}
                        },
                        "0x2adc25665018aa1fe0e6bc666dac8fc2697ff9ba": {
                            "nonce": "0x00",
                            "balance": "0x051801",
                            "code": "0x",
                            "storage": {}
                        }
                    }
                }
            ]
        },
        "config": {
            "blobSchedule": {
                "Cancun": {
                    "target": "0x03",
                    "max": "0x06",
                    "baseFeeUpdateFraction": "0x32f0ed"
                },
                "Prague": {
                    "target": "0x06",
                    "max": "0x09",
                    "baseFeeUpdateFraction": "0x4c6964"
                }
            },
            "chainid": "0x01"
        },
        "_info": {
            "hash": "0xc919f9fea5c1561a75bf905cdeafc679f94134162a7c191064bf7b0b306a552f",
            "comment": "`execution-spec-tests` generated test",
            "filling-transition-tool": "ethereum-spec-evm-resolver 0.0.5",
            "description": "Test the BLS12_G2MUL precompile using different call types.",
            "url": "https://github.com/ethereum/execution-spec-tests/blob/0044e83ccf97e84932e663ed1441d08efa019e26/tests/prague/eip2537_bls_12_381_precompiles/test_bls12_g2mul.py#L407",
            "fixture-format": "state_test",
            "reference-spec": "https://github.com/ethereum/EIPs/blob/master/EIPS/eip-2537.md",
            "reference-spec-version": "c561ec1426fe5ec470eade499a0bd4174f270583",
            "eels-resolution": {
                "git-url": "https://github.com/marioevz/execution-specs.git",
                "branch": "forks/bpo1",
                "commit": "3387e5f4aedfe99becfdc39b444d6371e25e0924"
            }
        }
    },
    "tests/prague/eip2537_bls_12_381_precompiles/test_bls12_g2mul.py::test_call_types[fork_Prague-state_test-two_times_inf-call_opcode_STATICCALL-]": {
        "env": {
            "currentCoinbase": "0x2adc25665018aa1fe0e6bc666dac8fc2697ff9ba",
            "currentGasLimit": "0x055d4a80",
            "currentNumber": "0x01",
            "currentTimestamp": "0x03e8",
            "currentRandom": "0x0000000000000000000000000000000000000000000000000000000000000000",
            "currentDifficulty": "0x00",
            "currentBaseFee": "0x07",
            "currentExcessBlobGas": "0x00"
        },
        "pre": {
            "0x1000000000000000000000000000000000001000": {
                "nonce": "0x01",
                "balance": "0x00",
                "code": "0x36600060003760006000366000600e6157e4fa6000553d6001553d600060003e3d600020600255",
                "storage": {}
            },
            "0xa94f5374fce5edbc8e2a8697c15331677e6ebf0b": {
                "nonce": "0x00",
                "balance": "0x0de0b6b3a7640000",
                "code": "0x",
                "storage": {}
            }
        },
        "transaction": {
            "nonce": "0x00",
            "gasPrice": "0x0a",
            "gasLimit": [
                "0x023c05"
            ],
            "to": "0x1000000000000000000000000000000000001000",
            "value": [
                "0x00"
            ],
            "data": [
                "0x000000000000000000000000000000000000000000000000000000000000000000000000000000000000000000000000000000000000000000000000000000000000000000000000000000000000000000000000000000000000000000000000000000000000000000000000000000000000000000000000000000000000000000000000000000000000000000000000000000000000000000000000000000000000000000000000000000000000000000000000000000000000000000000000000000000000000000000000000000000000000000000000000000000000000000000000000000000000000000000000000000000000000000000000000000000000000000000000000000000000000000000000000000000000000000000002"
            ],
            "sender": "0xa94f5374fce5edbc8e2a8697c15331677e6ebf0b",
            "secretKey": "0x45a915e4d060149eb4365960e6a7a45f334393093061116b197e3240065ff2d8"
        },
        "post": {
            "Prague": [
                {
                    "hash": "0xf00ede3e9e7ea48a73a662c665c3019918e0487c8114f6d6396a4ccb3b76b73e",
                    "logs": "0x1dcc4de8dec75d7aab85b567b6ccd41ad312451b948a7413f0a142fd40d49347",
                    "txbytes": "0xf90182800a83023c0594100000000000000000000000000000000000100080b9012000000000000000000000000000000000000000000000000000000000000000000000000000000000000000000000000000000000000000000000000000000000000000000000000000000000000000000000000000000000000000000000000000000000000000000000000000000000000000000000000000000000000000000000000000000000000000000000000000000000000000000000000000000000000000000000000000000000000000000000000000000000000000000000000000000000000000000000000000000000000000000000000000000000000000000000000000000000000000000000000000000000000000000000000000000000000000000000000000000000000000000000000000000000000000000000000226a00e3707d749bc0550455b49c2912f66977228e8fec6554a5864ae461fc7a3a4dfa021b58a5803808fb55f42cecb0a48124d0ad7e998ef4a5947b57a135514f851f8",
                    "indexes": {
                        "data": 0,
                        "gas": 0,
                        "value": 0
                    },
                    "state": {
                        "0x1000000000000000000000000000000000001000": {
                            "nonce": "0x01",
                            "balance": "0x00",
                            "code": "0x36600060003760006000366000600e6157e4fa6000553d6001553d600060003e3d600020600255",
                            "storage": {
                                "0x00": "0x01",
                                "0x01": "0x0100",
                                "0x02": "0xd397b3b043d87fcd6fad1291ff0bfd16401c274896d8c63a923727f077b8e0b5"
                            }
                        },
                        "0xa94f5374fce5edbc8e2a8697c15331677e6ebf0b": {
                            "nonce": "0x01",
                            "balance": "0x0de0b6b3a7530552",
                            "code": "0x",
                            "storage": {}
                        },
                        "0x2adc25665018aa1fe0e6bc666dac8fc2697ff9ba": {
                            "nonce": "0x00",
                            "balance": "0x051801",
                            "code": "0x",
                            "storage": {}
                        }
                    }
                }
            ]
        },
        "config": {
            "blobSchedule": {
                "Cancun": {
                    "target": "0x03",
                    "max": "0x06",
                    "baseFeeUpdateFraction": "0x32f0ed"
                },
                "Prague": {
                    "target": "0x06",
                    "max": "0x09",
                    "baseFeeUpdateFraction": "0x4c6964"
                }
            },
            "chainid": "0x01"
        },
        "_info": {
            "hash": "0xa2d90d5e6a15e3d736f36cd0c8da25e461463f643c6cce169fb5c0d5618c4662",
            "comment": "`execution-spec-tests` generated test",
            "filling-transition-tool": "ethereum-spec-evm-resolver 0.0.5",
            "description": "Test the BLS12_G2MUL precompile using different call types.",
            "url": "https://github.com/ethereum/execution-spec-tests/blob/0044e83ccf97e84932e663ed1441d08efa019e26/tests/prague/eip2537_bls_12_381_precompiles/test_bls12_g2mul.py#L407",
            "fixture-format": "state_test",
            "reference-spec": "https://github.com/ethereum/EIPs/blob/master/EIPS/eip-2537.md",
            "reference-spec-version": "c561ec1426fe5ec470eade499a0bd4174f270583",
            "eels-resolution": {
                "git-url": "https://github.com/marioevz/execution-specs.git",
                "branch": "forks/bpo1",
                "commit": "3387e5f4aedfe99becfdc39b444d6371e25e0924"
            }
        }
    },
    "tests/prague/eip2537_bls_12_381_precompiles/test_bls12_g2mul.py::test_call_types[fork_Prague-state_test-zero_times_inf-call_opcode_CALLCODE-]": {
        "env": {
            "currentCoinbase": "0x2adc25665018aa1fe0e6bc666dac8fc2697ff9ba",
            "currentGasLimit": "0x055d4a80",
            "currentNumber": "0x01",
            "currentTimestamp": "0x03e8",
            "currentRandom": "0x0000000000000000000000000000000000000000000000000000000000000000",
            "currentDifficulty": "0x00",
            "currentBaseFee": "0x07",
            "currentExcessBlobGas": "0x00"
        },
        "pre": {
            "0x1000000000000000000000000000000000001000": {
                "nonce": "0x01",
                "balance": "0x00",
                "code": "0x366000600037600060003660006000600e6157e4f26000553d6001553d600060003e3d600020600255",
                "storage": {}
            },
            "0xa94f5374fce5edbc8e2a8697c15331677e6ebf0b": {
                "nonce": "0x00",
                "balance": "0x0de0b6b3a7640000",
                "code": "0x",
                "storage": {}
            }
        },
        "transaction": {
            "nonce": "0x00",
            "gasPrice": "0x0a",
            "gasLimit": [
                "0x023be7"
            ],
            "to": "0x1000000000000000000000000000000000001000",
            "value": [
                "0x00"
            ],
            "data": [
                "0x000000000000000000000000000000000000000000000000000000000000000000000000000000000000000000000000000000000000000000000000000000000000000000000000000000000000000000000000000000000000000000000000000000000000000000000000000000000000000000000000000000000000000000000000000000000000000000000000000000000000000000000000000000000000000000000000000000000000000000000000000000000000000000000000000000000000000000000000000000000000000000000000000000000000000000000000000000000000000000000000000000000000000000000000000000000000000000000000000000000000000000000000000000000000000000000000"
            ],
            "sender": "0xa94f5374fce5edbc8e2a8697c15331677e6ebf0b",
            "secretKey": "0x45a915e4d060149eb4365960e6a7a45f334393093061116b197e3240065ff2d8"
        },
        "post": {
            "Prague": [
                {
                    "hash": "0x20170f7a68fa2d4da5508ce063e2734a401560ee2e538a2cd942110c30e71e49",
                    "logs": "0x1dcc4de8dec75d7aab85b567b6ccd41ad312451b948a7413f0a142fd40d49347",
                    "txbytes": "0xf90182800a83023be794100000000000000000000000000000000000100080b9012000000000000000000000000000000000000000000000000000000000000000000000000000000000000000000000000000000000000000000000000000000000000000000000000000000000000000000000000000000000000000000000000000000000000000000000000000000000000000000000000000000000000000000000000000000000000000000000000000000000000000000000000000000000000000000000000000000000000000000000000000000000000000000000000000000000000000000000000000000000000000000000000000000000000000000000000000000000000000000000000000000000000000000000000000000000000000000000000000000000000000000000000000000000000000000000000026a0c7a6788d6ef8f5cc9a0fad65c8195f32eee669ef23fc72f5a7d22aa625c743eea037bf0d898f2f26ce90e637e9b90d8973d479c5636b065565c87a87d970961f18",
                    "indexes": {
                        "data": 0,
                        "gas": 0,
                        "value": 0
                    },
                    "state": {
                        "0x1000000000000000000000000000000000001000": {
                            "nonce": "0x01",
                            "balance": "0x00",
                            "code": "0x366000600037600060003660006000600e6157e4f26000553d6001553d600060003e3d600020600255",
                            "storage": {
                                "0x00": "0x01",
                                "0x01": "0x0100",
                                "0x02": "0xd397b3b043d87fcd6fad1291ff0bfd16401c274896d8c63a923727f077b8e0b5"
                            }
                        },
                        "0xa94f5374fce5edbc8e2a8697c15331677e6ebf0b": {
                            "nonce": "0x01",
                            "balance": "0x0de0b6b3a75305ac",
                            "code": "0x",
                            "storage": {}
                        },
                        "0x2adc25665018aa1fe0e6bc666dac8fc2697ff9ba": {
                            "nonce": "0x00",
                            "balance": "0x0517e6",
                            "code": "0x",
                            "storage": {}
                        }
                    }
                }
            ]
        },
        "config": {
            "blobSchedule": {
                "Cancun": {
                    "target": "0x03",
                    "max": "0x06",
                    "baseFeeUpdateFraction": "0x32f0ed"
                },
                "Prague": {
                    "target": "0x06",
                    "max": "0x09",
                    "baseFeeUpdateFraction": "0x4c6964"
                }
            },
            "chainid": "0x01"
        },
        "_info": {
            "hash": "0x9a244d6d8564b2e4cd822a4092998587a10d5f082e723ac392e9660e77c0ad29",
            "comment": "`execution-spec-tests` generated test",
            "filling-transition-tool": "ethereum-spec-evm-resolver 0.0.5",
            "description": "Test the BLS12_G2MUL precompile using different call types.",
            "url": "https://github.com/ethereum/execution-spec-tests/blob/0044e83ccf97e84932e663ed1441d08efa019e26/tests/prague/eip2537_bls_12_381_precompiles/test_bls12_g2mul.py#L407",
            "fixture-format": "state_test",
            "reference-spec": "https://github.com/ethereum/EIPs/blob/master/EIPS/eip-2537.md",
            "reference-spec-version": "c561ec1426fe5ec470eade499a0bd4174f270583",
            "eels-resolution": {
                "git-url": "https://github.com/marioevz/execution-specs.git",
                "branch": "forks/bpo1",
                "commit": "3387e5f4aedfe99becfdc39b444d6371e25e0924"
            }
        }
    },
    "tests/prague/eip2537_bls_12_381_precompiles/test_bls12_g2mul.py::test_call_types[fork_Prague-state_test-zero_times_inf-call_opcode_DELEGATECALL-]": {
        "env": {
            "currentCoinbase": "0x2adc25665018aa1fe0e6bc666dac8fc2697ff9ba",
            "currentGasLimit": "0x055d4a80",
            "currentNumber": "0x01",
            "currentTimestamp": "0x03e8",
            "currentRandom": "0x0000000000000000000000000000000000000000000000000000000000000000",
            "currentDifficulty": "0x00",
            "currentBaseFee": "0x07",
            "currentExcessBlobGas": "0x00"
        },
        "pre": {
            "0x1000000000000000000000000000000000001000": {
                "nonce": "0x01",
                "balance": "0x00",
                "code": "0x36600060003760006000366000600e6157e4f46000553d6001553d600060003e3d600020600255",
                "storage": {}
            },
            "0xa94f5374fce5edbc8e2a8697c15331677e6ebf0b": {
                "nonce": "0x00",
                "balance": "0x0de0b6b3a7640000",
                "code": "0x",
                "storage": {}
            }
        },
        "transaction": {
            "nonce": "0x00",
            "gasPrice": "0x0a",
            "gasLimit": [
                "0x023be7"
            ],
            "to": "0x1000000000000000000000000000000000001000",
            "value": [
                "0x00"
            ],
            "data": [
                "0x000000000000000000000000000000000000000000000000000000000000000000000000000000000000000000000000000000000000000000000000000000000000000000000000000000000000000000000000000000000000000000000000000000000000000000000000000000000000000000000000000000000000000000000000000000000000000000000000000000000000000000000000000000000000000000000000000000000000000000000000000000000000000000000000000000000000000000000000000000000000000000000000000000000000000000000000000000000000000000000000000000000000000000000000000000000000000000000000000000000000000000000000000000000000000000000000"
            ],
            "sender": "0xa94f5374fce5edbc8e2a8697c15331677e6ebf0b",
            "secretKey": "0x45a915e4d060149eb4365960e6a7a45f334393093061116b197e3240065ff2d8"
        },
        "post": {
            "Prague": [
                {
                    "hash": "0xab8436618ea0cf83bdc0aa65289086414114bb45bb23810be6d8c0741c2803a3",
                    "logs": "0x1dcc4de8dec75d7aab85b567b6ccd41ad312451b948a7413f0a142fd40d49347",
                    "txbytes": "0xf90182800a83023be794100000000000000000000000000000000000100080b9012000000000000000000000000000000000000000000000000000000000000000000000000000000000000000000000000000000000000000000000000000000000000000000000000000000000000000000000000000000000000000000000000000000000000000000000000000000000000000000000000000000000000000000000000000000000000000000000000000000000000000000000000000000000000000000000000000000000000000000000000000000000000000000000000000000000000000000000000000000000000000000000000000000000000000000000000000000000000000000000000000000000000000000000000000000000000000000000000000000000000000000000000000000000000000000000000026a0c7a6788d6ef8f5cc9a0fad65c8195f32eee669ef23fc72f5a7d22aa625c743eea037bf0d898f2f26ce90e637e9b90d8973d479c5636b065565c87a87d970961f18",
                    "indexes": {
                        "data": 0,
                        "gas": 0,
                        "value": 0
                    },
                    "state": {
                        "0x1000000000000000000000000000000000001000": {
                            "nonce": "0x01",
                            "balance": "0x00",
                            "code": "0x36600060003760006000366000600e6157e4f46000553d6001553d600060003e3d600020600255",
                            "storage": {
                                "0x00": "0x01",
                                "0x01": "0x0100",
                                "0x02": "0xd397b3b043d87fcd6fad1291ff0bfd16401c274896d8c63a923727f077b8e0b5"
                            }
                        },
                        "0xa94f5374fce5edbc8e2a8697c15331677e6ebf0b": {
                            "nonce": "0x01",
                            "balance": "0x0de0b6b3a75305ca",
                            "code": "0x",
                            "storage": {}
                        },
                        "0x2adc25665018aa1fe0e6bc666dac8fc2697ff9ba": {
                            "nonce": "0x00",
                            "balance": "0x0517dd",
                            "code": "0x",
                            "storage": {}
                        }
                    }
                }
            ]
        },
        "config": {
            "blobSchedule": {
                "Cancun": {
                    "target": "0x03",
                    "max": "0x06",
                    "baseFeeUpdateFraction": "0x32f0ed"
                },
                "Prague": {
                    "target": "0x06",
                    "max": "0x09",
                    "baseFeeUpdateFraction": "0x4c6964"
                }
            },
            "chainid": "0x01"
        },
        "_info": {
            "hash": "0x68b984b3dcdbef2a67f00a2b0d0e182fea0100bddb6e620dd7f1867af0b997bf",
            "comment": "`execution-spec-tests` generated test",
            "filling-transition-tool": "ethereum-spec-evm-resolver 0.0.5",
            "description": "Test the BLS12_G2MUL precompile using different call types.",
            "url": "https://github.com/ethereum/execution-spec-tests/blob/0044e83ccf97e84932e663ed1441d08efa019e26/tests/prague/eip2537_bls_12_381_precompiles/test_bls12_g2mul.py#L407",
            "fixture-format": "state_test",
            "reference-spec": "https://github.com/ethereum/EIPs/blob/master/EIPS/eip-2537.md",
            "reference-spec-version": "c561ec1426fe5ec470eade499a0bd4174f270583",
            "eels-resolution": {
                "git-url": "https://github.com/marioevz/execution-specs.git",
                "branch": "forks/bpo1",
                "commit": "3387e5f4aedfe99becfdc39b444d6371e25e0924"
            }
        }
    },
    "tests/prague/eip2537_bls_12_381_precompiles/test_bls12_g2mul.py::test_call_types[fork_Prague-state_test-zero_times_inf-call_opcode_STATICCALL-]": {
        "env": {
            "currentCoinbase": "0x2adc25665018aa1fe0e6bc666dac8fc2697ff9ba",
            "currentGasLimit": "0x055d4a80",
            "currentNumber": "0x01",
            "currentTimestamp": "0x03e8",
            "currentRandom": "0x0000000000000000000000000000000000000000000000000000000000000000",
            "currentDifficulty": "0x00",
            "currentBaseFee": "0x07",
            "currentExcessBlobGas": "0x00"
        },
        "pre": {
            "0x1000000000000000000000000000000000001000": {
                "nonce": "0x01",
                "balance": "0x00",
                "code": "0x36600060003760006000366000600e6157e4fa6000553d6001553d600060003e3d600020600255",
                "storage": {}
            },
            "0xa94f5374fce5edbc8e2a8697c15331677e6ebf0b": {
                "nonce": "0x00",
                "balance": "0x0de0b6b3a7640000",
                "code": "0x",
                "storage": {}
            }
        },
        "transaction": {
            "nonce": "0x00",
            "gasPrice": "0x0a",
            "gasLimit": [
                "0x023be7"
            ],
            "to": "0x1000000000000000000000000000000000001000",
            "value": [
                "0x00"
            ],
            "data": [
                "0x000000000000000000000000000000000000000000000000000000000000000000000000000000000000000000000000000000000000000000000000000000000000000000000000000000000000000000000000000000000000000000000000000000000000000000000000000000000000000000000000000000000000000000000000000000000000000000000000000000000000000000000000000000000000000000000000000000000000000000000000000000000000000000000000000000000000000000000000000000000000000000000000000000000000000000000000000000000000000000000000000000000000000000000000000000000000000000000000000000000000000000000000000000000000000000000000"
            ],
            "sender": "0xa94f5374fce5edbc8e2a8697c15331677e6ebf0b",
            "secretKey": "0x45a915e4d060149eb4365960e6a7a45f334393093061116b197e3240065ff2d8"
        },
        "post": {
            "Prague": [
                {
                    "hash": "0x32e33da2c7488422aa19fe10f0be81d9516889b3aedac7c4d87541353ed1db6f",
                    "logs": "0x1dcc4de8dec75d7aab85b567b6ccd41ad312451b948a7413f0a142fd40d49347",
                    "txbytes": "0xf90182800a83023be794100000000000000000000000000000000000100080b9012000000000000000000000000000000000000000000000000000000000000000000000000000000000000000000000000000000000000000000000000000000000000000000000000000000000000000000000000000000000000000000000000000000000000000000000000000000000000000000000000000000000000000000000000000000000000000000000000000000000000000000000000000000000000000000000000000000000000000000000000000000000000000000000000000000000000000000000000000000000000000000000000000000000000000000000000000000000000000000000000000000000000000000000000000000000000000000000000000000000000000000000000000000000000000000000000026a0c7a6788d6ef8f5cc9a0fad65c8195f32eee669ef23fc72f5a7d22aa625c743eea037bf0d898f2f26ce90e637e9b90d8973d479c5636b065565c87a87d970961f18",
                    "indexes": {
                        "data": 0,
                        "gas": 0,
                        "value": 0
                    },
                    "state": {
                        "0x1000000000000000000000000000000000001000": {
                            "nonce": "0x01",
                            "balance": "0x00",
                            "code": "0x36600060003760006000366000600e6157e4fa6000553d6001553d600060003e3d600020600255",
                            "storage": {
                                "0x00": "0x01",
                                "0x01": "0x0100",
                                "0x02": "0xd397b3b043d87fcd6fad1291ff0bfd16401c274896d8c63a923727f077b8e0b5"
                            }
                        },
                        "0xa94f5374fce5edbc8e2a8697c15331677e6ebf0b": {
                            "nonce": "0x01",
                            "balance": "0x0de0b6b3a75305ca",
                            "code": "0x",
                            "storage": {}
                        },
                        "0x2adc25665018aa1fe0e6bc666dac8fc2697ff9ba": {
                            "nonce": "0x00",
                            "balance": "0x0517dd",
                            "code": "0x",
                            "storage": {}
                        }
                    }
                }
            ]
        },
        "config": {
            "blobSchedule": {
                "Cancun": {
                    "target": "0x03",
                    "max": "0x06",
                    "baseFeeUpdateFraction": "0x32f0ed"
                },
                "Prague": {
                    "target": "0x06",
                    "max": "0x09",
                    "baseFeeUpdateFraction": "0x4c6964"
                }
            },
            "chainid": "0x01"
        },
        "_info": {
            "hash": "0x9856ec6b097af2ad66f42242e4b418981bdaf489e190373241d8c0678b34629a",
            "comment": "`execution-spec-tests` generated test",
            "filling-transition-tool": "ethereum-spec-evm-resolver 0.0.5",
            "description": "Test the BLS12_G2MUL precompile using different call types.",
            "url": "https://github.com/ethereum/execution-spec-tests/blob/0044e83ccf97e84932e663ed1441d08efa019e26/tests/prague/eip2537_bls_12_381_precompiles/test_bls12_g2mul.py#L407",
            "fixture-format": "state_test",
            "reference-spec": "https://github.com/ethereum/EIPs/blob/master/EIPS/eip-2537.md",
            "reference-spec-version": "c561ec1426fe5ec470eade499a0bd4174f270583",
            "eels-resolution": {
                "git-url": "https://github.com/marioevz/execution-specs.git",
                "branch": "forks/bpo1",
                "commit": "3387e5f4aedfe99becfdc39b444d6371e25e0924"
            }
        }
    }
}