{
    "tests/prague/eip2537_bls_12_381_precompiles/test_bls12_variable_length_input_contracts.py::test_invalid_length_pairing[fork_Prague-full_discount_table-state_test-precompile_address_15--input_one_byte_too_long]": {
        "env": {
            "currentCoinbase": "0x2adc25665018aa1fe0e6bc666dac8fc2697ff9ba",
            "currentGasLimit": "0x055d4a80",
            "currentNumber": "0x01",
            "currentTimestamp": "0x03e8",
            "currentRandom": "0x0000000000000000000000000000000000000000000000000000000000000000",
            "currentDifficulty": "0x00",
            "currentBaseFee": "0x07",
            "currentExcessBlobGas": "0x00"
        },
        "pre": {
            "0x1000000000000000000000000000000000001000": {
                "nonce": "0x01",
                "balance": "0x00",
                "code": "0x6000600061018160006000600f6201129cf16000556000600061030160006000600f620191f4f16001556000600061048160006000600f6202114cf16002556000600061060160006000600f620290a4f16003556000600061078160006000600f62030ffcf16004556000600061090160006000600f62038f54f160055560006000610a8160006000600f62040eacf160065560006000610c0160006000600f62048e04f160075560006000610d8160006000600f62050d5cf160085560006000610f0160006000600f62058cb4f16009556000600061108160006000600f62060c0cf1600a556000600061120160006000600f62068b64f1600b556000600061138160006000600f62070abcf1600c556000600061150160006000600f62078a14f1600d556000600061168160006000600f6208096cf1600e556000600061180160006000600f620888c4f1600f556000600061198160006000600f6209081cf160105560006000611b0160006000600f62098774f160115560006000611c8160006000600f620a06ccf160125560006000611e0160006000600f620a8624f1601355",
                "storage": {}
            },
            "0xa94f5374fce5edbc8e2a8697c15331677e6ebf0b": {
                "nonce": "0x00",
                "balance": "0x0de0b6b3a7640000",
                "code": "0x",
                "storage": {}
            }
        },
        "transaction": {
            "nonce": "0x00",
            "gasPrice": "0x0a",
            "gasLimit": [
                "0x7b2a98"
            ],
            "to": "0x1000000000000000000000000000000000001000",
            "value": [
                "0x00"
            ],
            "data": [
                "0x"
            ],
            "sender": "0xa94f5374fce5edbc8e2a8697c15331677e6ebf0b",
            "secretKey": "0x45a915e4d060149eb4365960e6a7a45f334393093061116b197e3240065ff2d8"
        },
        "post": {
            "Prague": [
                {
                    "hash": "0x7c9ed57f64e508e30d6c029cb9ee58d1e69e56a3d50beb45ecf59da596b5b11b",
                    "logs": "0x1dcc4de8dec75d7aab85b567b6ccd41ad312451b948a7413f0a142fd40d49347",
                    "txbytes": "0xf860800a837b2a98941000000000000000000000000000000000001000808025a0b522dbbc9823ac4283990d24c220eb4ee98e5840014a773a61e4254a33d25ce0a002ee457d1c78acaab6e682c91e9c4f7c48403db8fd4bf1843827a9cc858ef5df",
                    "indexes": {
                        "data": 0,
                        "gas": 0,
                        "value": 0
                    },
                    "state": {
                        "0x1000000000000000000000000000000000001000": {
                            "nonce": "0x01",
                            "balance": "0x00",
                            "code": "0x6000600061018160006000600f6201129cf16000556000600061030160006000600f620191f4f16001556000600061048160006000600f6202114cf16002556000600061060160006000600f620290a4f16003556000600061078160006000600f62030ffcf16004556000600061090160006000600f62038f54f160055560006000610a8160006000600f62040eacf160065560006000610c0160006000600f62048e04f160075560006000610d8160006000600f62050d5cf160085560006000610f0160006000600f62058cb4f16009556000600061108160006000600f62060c0cf1600a556000600061120160006000600f62068b64f1600b556000600061138160006000600f62070abcf1600c556000600061150160006000600f62078a14f1600d556000600061168160006000600f6208096cf1600e556000600061180160006000600f620888c4f1600f556000600061198160006000600f6209081cf160105560006000611b0160006000600f62098774f160115560006000611c8160006000600f620a06ccf160125560006000611e0160006000600f620a8624f1601355",
                            "storage": {}
                        },
                        "0xa94f5374fce5edbc8e2a8697c15331677e6ebf0b": {
                            "nonce": "0x01",
                            "balance": "0x0de0b6b3a2d1e868",
                            "code": "0x",
                            "storage": {}
                        },
                        "0x2adc25665018aa1fe0e6bc666dac8fc2697ff9ba": {
                            "nonce": "0x00",
                            "balance": "0x015f0714",
                            "code": "0x",
                            "storage": {}
                        }
                    }
                }
            ]
        },
        "config": {
            "blobSchedule": {
                "Cancun": {
                    "target": "0x03",
                    "max": "0x06",
                    "baseFeeUpdateFraction": "0x32f0ed"
                },
                "Prague": {
                    "target": "0x06",
                    "max": "0x09",
                    "baseFeeUpdateFraction": "0x4c6964"
                }
            },
            "chainid": "0x01"
        },
        "_info": {
            "hash": "0x376cc5bd6e0b74a254f1143e9f74ce605299d539c2aab0de12f0f12a2cd7e3fb",
            "comment": "`execution-spec-tests` generated test",
            "filling-transition-tool": "ethereum-spec-evm-resolver 0.0.5",
            "description": "Test the BLS12_PAIRING precompile, by expecting the call to fail for all possible input\n    lengths (up to k == PAIRINGS_TO_TEST) because the incorrect input length was used.\n\n    If any of the calls succeeds, the test will fail.",
            "url": "https://github.com/ethereum/execution-spec-tests/blob/0044e83ccf97e84932e663ed1441d08efa019e26/tests/prague/eip2537_bls_12_381_precompiles/test_bls12_variable_length_input_contracts.py#L652",
            "fixture-format": "state_test",
            "reference-spec": "https://github.com/ethereum/EIPs/blob/master/EIPS/eip-2537.md",
            "reference-spec-version": "c561ec1426fe5ec470eade499a0bd4174f270583",
            "eels-resolution": {
                "git-url": "https://github.com/marioevz/execution-specs.git",
                "branch": "forks/bpo1",
                "commit": "3387e5f4aedfe99becfdc39b444d6371e25e0924"
            }
        }
    },
    "tests/prague/eip2537_bls_12_381_precompiles/test_bls12_variable_length_input_contracts.py::test_invalid_length_pairing[fork_Prague-full_discount_table-state_test-precompile_address_15--input_one_byte_too_short]": {
        "env": {
            "currentCoinbase": "0x2adc25665018aa1fe0e6bc666dac8fc2697ff9ba",
            "currentGasLimit": "0x055d4a80",
            "currentNumber": "0x01",
            "currentTimestamp": "0x03e8",
            "currentRandom": "0x0000000000000000000000000000000000000000000000000000000000000000",
            "currentDifficulty": "0x00",
            "currentBaseFee": "0x07",
            "currentExcessBlobGas": "0x00"
        },
        "pre": {
            "0x1000000000000000000000000000000000001000": {
                "nonce": "0x01",
                "balance": "0x00",
                "code": "0x6000600061017f60006000600f6201129cf1600055600060006102ff60006000600f620191f4f16001556000600061047f60006000600f6202114cf1600255600060006105ff60006000600f620290a4f16003556000600061077f60006000600f62030ffcf1600455600060006108ff60006000600f62038f54f160055560006000610a7f60006000600f62040eacf160065560006000610bff60006000600f62048e04f160075560006000610d7f60006000600f62050d5cf160085560006000610eff60006000600f62058cb4f16009556000600061107f60006000600f62060c0cf1600a55600060006111ff60006000600f62068b64f1600b556000600061137f60006000600f62070abcf1600c55600060006114ff60006000600f62078a14f1600d556000600061167f60006000600f6208096cf1600e55600060006117ff60006000600f620888c4f1600f556000600061197f60006000600f6209081cf160105560006000611aff60006000600f62098774f160115560006000611c7f60006000600f620a06ccf160125560006000611dff60006000600f620a8624f1601355",
                "storage": {}
            },
            "0xa94f5374fce5edbc8e2a8697c15331677e6ebf0b": {
                "nonce": "0x00",
                "balance": "0x0de0b6b3a7640000",
                "code": "0x",
                "storage": {}
            }
        },
        "transaction": {
            "nonce": "0x00",
            "gasPrice": "0x0a",
            "gasLimit": [
                "0x7b2a98"
            ],
            "to": "0x1000000000000000000000000000000000001000",
            "value": [
                "0x00"
            ],
            "data": [
                "0x"
            ],
            "sender": "0xa94f5374fce5edbc8e2a8697c15331677e6ebf0b",
            "secretKey": "0x45a915e4d060149eb4365960e6a7a45f334393093061116b197e3240065ff2d8"
        },
        "post": {
            "Prague": [
                {
                    "hash": "0xf4ae13117ce8d41d460b95dd30cd91cbfafd22dbff4fbd0b6a49b6a52b32d65f",
                    "logs": "0x1dcc4de8dec75d7aab85b567b6ccd41ad312451b948a7413f0a142fd40d49347",
                    "txbytes": "0xf860800a837b2a98941000000000000000000000000000000000001000808025a0b522dbbc9823ac4283990d24c220eb4ee98e5840014a773a61e4254a33d25ce0a002ee457d1c78acaab6e682c91e9c4f7c48403db8fd4bf1843827a9cc858ef5df",
                    "indexes": {
                        "data": 0,
                        "gas": 0,
                        "value": 0
                    },
                    "state": {
                        "0x1000000000000000000000000000000000001000": {
                            "nonce": "0x01",
                            "balance": "0x00",
                            "code": "0x6000600061017f60006000600f6201129cf1600055600060006102ff60006000600f620191f4f16001556000600061047f60006000600f6202114cf1600255600060006105ff60006000600f620290a4f16003556000600061077f60006000600f62030ffcf1600455600060006108ff60006000600f62038f54f160055560006000610a7f60006000600f62040eacf160065560006000610bff60006000600f62048e04f160075560006000610d7f60006000600f62050d5cf160085560006000610eff60006000600f62058cb4f16009556000600061107f60006000600f62060c0cf1600a55600060006111ff60006000600f62068b64f1600b556000600061137f60006000600f62070abcf1600c55600060006114ff60006000600f62078a14f1600d556000600061167f60006000600f6208096cf1600e55600060006117ff60006000600f620888c4f1600f556000600061197f60006000600f6209081cf160105560006000611aff60006000600f62098774f160115560006000611c7f60006000600f620a06ccf160125560006000611dff60006000600f620a8624f1601355",
                            "storage": {}
                        },
                        "0xa94f5374fce5edbc8e2a8697c15331677e6ebf0b": {
                            "nonce": "0x01",
                            "balance": "0x0de0b6b3a2d1e890",
                            "code": "0x",
                            "storage": {}
                        },
                        "0x2adc25665018aa1fe0e6bc666dac8fc2697ff9ba": {
                            "nonce": "0x00",
                            "balance": "0x015f0708",
                            "code": "0x",
                            "storage": {}
                        }
                    }
                }
            ]
        },
        "config": {
            "blobSchedule": {
                "Cancun": {
                    "target": "0x03",
                    "max": "0x06",
                    "baseFeeUpdateFraction": "0x32f0ed"
                },
                "Prague": {
                    "target": "0x06",
                    "max": "0x09",
                    "baseFeeUpdateFraction": "0x4c6964"
                }
            },
            "chainid": "0x01"
        },
        "_info": {
            "hash": "0x1c34033f191d5731508b3e1586e17811a6b96ab0abf90c6e43031742049dcfc9",
            "comment": "`execution-spec-tests` generated test",
            "filling-transition-tool": "ethereum-spec-evm-resolver 0.0.5",
            "description": "Test the BLS12_PAIRING precompile, by expecting the call to fail for all possible input\n    lengths (up to k == PAIRINGS_TO_TEST) because the incorrect input length was used.\n\n    If any of the calls succeeds, the test will fail.",
            "url": "https://github.com/ethereum/execution-spec-tests/blob/0044e83ccf97e84932e663ed1441d08efa019e26/tests/prague/eip2537_bls_12_381_precompiles/test_bls12_variable_length_input_contracts.py#L652",
            "fixture-format": "state_test",
            "reference-spec": "https://github.com/ethereum/EIPs/blob/master/EIPS/eip-2537.md",
            "reference-spec-version": "c561ec1426fe5ec470eade499a0bd4174f270583",
            "eels-resolution": {
                "git-url": "https://github.com/marioevz/execution-specs.git",
                "branch": "forks/bpo1",
                "commit": "3387e5f4aedfe99becfdc39b444d6371e25e0924"
            }
        }
    }
}