{
    "tests/prague/eip2537_bls_12_381_precompiles/test_bls12_variable_length_input_contracts.py::test_invalid_gas_pairing[fork_Prague-full_discount_table-state_test-precompile_address_15--insufficient_gas]": {
        "env": {
            "currentCoinbase": "0x2adc25665018aa1fe0e6bc666dac8fc2697ff9ba",
            "currentGasLimit": "0x055d4a80",
            "currentNumber": "0x01",
            "currentTimestamp": "0x03e8",
            "currentRandom": "0x0000000000000000000000000000000000000000000000000000000000000000",
            "currentDifficulty": "0x00",
            "currentBaseFee": "0x07",
            "currentExcessBlobGas": "0x00"
        },
        "pre": {
            "0x1000000000000000000000000000000000001000": {
                "nonce": "0x01",
                "balance": "0x00",
                "code": "0x6000600061018060006000600f6201129bf16000556000600061030060006000600f620191f3f16001556000600061048060006000600f6202114bf16002556000600061060060006000600f620290a3f16003556000600061078060006000600f62030ffbf16004556000600061090060006000600f62038f53f160055560006000610a8060006000600f62040eabf160065560006000610c0060006000600f62048e03f160075560006000610d8060006000600f62050d5bf160085560006000610f0060006000600f62058cb3f16009556000600061108060006000600f62060c0bf1600a556000600061120060006000600f62068b63f1600b556000600061138060006000600f62070abbf1600c556000600061150060006000600f62078a13f1600d556000600061168060006000600f6208096bf1600e556000600061180060006000600f620888c3f1600f556000600061198060006000600f6209081bf160105560006000611b0060006000600f62098773f160115560006000611c8060006000600f620a06cbf160125560006000611e0060006000600f620a8623f1601355",
                "storage": {}
            },
            "0xa94f5374fce5edbc8e2a8697c15331677e6ebf0b": {
                "nonce": "0x00",
                "balance": "0x0de0b6b3a7640000",
                "code": "0x",
                "storage": {}
            }
        },
        "transaction": {
            "nonce": "0x00",
            "gasPrice": "0x0a",
            "gasLimit": [
                "0x7b2a98"
            ],
            "to": "0x1000000000000000000000000000000000001000",
            "value": [
                "0x00"
            ],
            "data": [
                "0x"
            ],
            "sender": "0xa94f5374fce5edbc8e2a8697c15331677e6ebf0b",
            "secretKey": "0x45a915e4d060149eb4365960e6a7a45f334393093061116b197e3240065ff2d8"
        },
        "post": {
            "Prague": [
                {
                    "hash": "0x9a3f82c6fb8c8ad7172202808bbdaae6ac0c3fc28cae7e4481350017a80346e2",
                    "logs": "0x1dcc4de8dec75d7aab85b567b6ccd41ad312451b948a7413f0a142fd40d49347",
                    "txbytes": "0xf860800a837b2a98941000000000000000000000000000000000001000808025a0b522dbbc9823ac4283990d24c220eb4ee98e5840014a773a61e4254a33d25ce0a002ee457d1c78acaab6e682c91e9c4f7c48403db8fd4bf1843827a9cc858ef5df",
                    "indexes": {
                        "data": 0,
                        "gas": 0,
                        "value": 0
                    },
                    "state": {
                        "0x1000000000000000000000000000000000001000": {
                            "nonce": "0x01",
                            "balance": "0x00",
                            "code": "0x6000600061018060006000600f6201129bf16000556000600061030060006000600f620191f3f16001556000600061048060006000600f6202114bf16002556000600061060060006000600f620290a3f16003556000600061078060006000600f62030ffbf16004556000600061090060006000600f62038f53f160055560006000610a8060006000600f62040eabf160065560006000610c0060006000600f62048e03f160075560006000610d8060006000600f62050d5bf160085560006000610f0060006000600f62058cb3f16009556000600061108060006000600f62060c0bf1600a556000600061120060006000600f62068b63f1600b556000600061138060006000600f62070abbf1600c556000600061150060006000600f62078a13f1600d556000600061168060006000600f6208096bf1600e556000600061180060006000600f620888c3f1600f556000600061198060006000600f6209081bf160105560006000611b0060006000600f62098773f160115560006000611c8060006000600f620a06cbf160125560006000611e0060006000600f620a8623f1601355",
                            "storage": {}
                        },
                        "0xa94f5374fce5edbc8e2a8697c15331677e6ebf0b": {
                            "nonce": "0x01",
                            "balance": "0x0de0b6b3a2d1e958",
                            "code": "0x",
                            "storage": {}
                        },
                        "0x2adc25665018aa1fe0e6bc666dac8fc2697ff9ba": {
                            "nonce": "0x00",
                            "balance": "0x015f06cc",
                            "code": "0x",
                            "storage": {}
                        }
                    }
                }
            ]
        },
        "config": {
            "blobSchedule": {
                "Cancun": {
                    "target": "0x03",
                    "max": "0x06",
                    "baseFeeUpdateFraction": "0x32f0ed"
                },
                "Prague": {
                    "target": "0x06",
                    "max": "0x09",
                    "baseFeeUpdateFraction": "0x4c6964"
                }
            },
            "chainid": "0x01"
        },
        "_info": {
            "hash": "0xa4f79324ee3241e615cf9f76405a7eb36600754dcb42036cd517f9e921e7c2f8",
            "comment": "`execution-spec-tests` generated test",
            "filling-transition-tool": "ethereum-spec-evm-resolver 0.0.5",
            "description": "Test the BLS12_PAIRING precompile, by expecting the call to fail for all possible input\n    lengths (up to k == PAIRINGS_TO_TEST) because the appropriate amount of gas is not provided.\n\n    If any of the calls succeeds, the test will fail.",
            "url": "https://github.com/ethereum/execution-spec-tests/blob/0044e83ccf97e84932e663ed1441d08efa019e26/tests/prague/eip2537_bls_12_381_precompiles/test_bls12_variable_length_input_contracts.py#L596",
            "fixture-format": "state_test",
            "reference-spec": "https://github.com/ethereum/EIPs/blob/master/EIPS/eip-2537.md",
            "reference-spec-version": "c561ec1426fe5ec470eade499a0bd4174f270583",
            "eels-resolution": {
                "git-url": "https://github.com/marioevz/execution-specs.git",
                "branch": "forks/bpo1",
                "commit": "3387e5f4aedfe99becfdc39b444d6371e25e0924"
            }
        }
    }
}