{
    "tests/shanghai/eip3651_warm_coinbase/test_warm_coinbase.py::test_warm_coinbase_gas_usage[fork_Shanghai-state_test-BALANCE]": {
        "env": {
            "currentCoinbase": "0x2adc25665018aa1fe0e6bc666dac8fc2697ff9ba",
            "currentGasLimit": "0x055d4a80",
            "currentNumber": "0x01",
            "currentTimestamp": "0x03e8",
            "currentRandom": "0x0000000000000000000000000000000000000000000000000000000000000000",
            "currentDifficulty": "0x00",
            "currentBaseFee": "0x07"
        },
        "pre": {
            "0xa94f5374fce5edbc8e2a8697c15331677e6ebf0b": {
                "nonce": "0x00",
                "balance": "0x3635c9adc5dea00000",
                "code": "0x",
                "storage": {}
            },
            "0x1000000000000000000000000000000000001000": {
                "nonce": "0x01",
                "balance": "0x00",
                "code": "0x5a41315a905090036004900360005500",
                "storage": {}
            }
        },
        "transaction": {
            "nonce": "0x00",
            "gasPrice": "0x0a",
            "gasLimit": [
                "0x0186a0"
            ],
            "to": "0x1000000000000000000000000000000000001000",
            "value": [
                "0x00"
            ],
            "data": [
                "0x"
            ],
            "sender": "0xa94f5374fce5edbc8e2a8697c15331677e6ebf0b",
            "secretKey": "0x45a915e4d060149eb4365960e6a7a45f334393093061116b197e3240065ff2d8"
        },
        "post": {
            "Shanghai": [
                {
                    "hash": "0xcf8ba0295229fd677a74d67eb242496a57a8b4d8f71bed02d10fff3647724ed4",
                    "logs": "0x1dcc4de8dec75d7aab85b567b6ccd41ad312451b948a7413f0a142fd40d49347",
                    "txbytes": "0xf860800a830186a0941000000000000000000000000000000000001000808025a062122520aa633c0a60f8fc7a69a072408581d520aae22bacae3a38c37e5a41bba03610a5d2e0dcfae9b08bc9589b1eb4b3c321cd76670a88180388cf130fb786ca",
                    "indexes": {
                        "data": 0,
                        "gas": 0,
                        "value": 0
                    },
                    "state": {
                        "0xa94f5374fce5edbc8e2a8697c15331677e6ebf0b": {
                            "nonce": "0x01",
                            "balance": "0x3635c9adc5de99675e",
                            "code": "0x",
                            "storage": {}
                        },
                        "0x1000000000000000000000000000000000001000": {
                            "nonce": "0x01",
                            "balance": "0x00",
                            "code": "0x5a41315a905090036004900360005500",
                            "storage": {
                                "0x00": "0x64"
                            }
                        },
                        "0x2adc25665018aa1fe0e6bc666dac8fc2697ff9ba": {
                            "nonce": "0x00",
                            "balance": "0x01fa97",
                            "code": "0x",
                            "storage": {}
                        }
                    }
                }
            ]
        },
        "config": {
            "chainid": "0x01"
        },
        "_info": {
            "hash": "0x888ae00ceb3cbfd9aafd7de04f102c817c3aaa80e7ae78f8d514a15bb40cb3a9",
            "comment": "`execution-spec-tests` generated test",
            "filling-transition-tool": "ethereum-spec-evm-resolver 0.0.5",
            "description": "Test the gas usage of opcodes affected by assuming a warm coinbase.\n\n    - EXTCODESIZE\n    - EXTCODECOPY\n    - EXTCODEHASH\n    - BALANCE\n    - CALL\n    - CALLCODE\n    - DELEGATECALL\n    - STATICCALL",
            "url": "https://github.com/ethereum/execution-spec-tests/blob/20770a694f440aeb4ea3ec86a3b9bc04d40146a3/tests/shanghai/eip3651_warm_coinbase/test_warm_coinbase.py#L202",
            "fixture-format": "state_test",
            "reference-spec": "https://github.com/ethereum/EIPs/blob/master/EIPS/eip-3651.md",
            "reference-spec-version": "d94c694c6f12291bb6626669c3e8587eef3adff1",
            "eels-resolution": {
                "git-url": "https://github.com/marioevz/execution-specs.git",
                "branch": "forks/bpo1",
                "commit": "3387e5f4aedfe99becfdc39b444d6371e25e0924"
            }
        }
    },
    "tests/shanghai/eip3651_warm_coinbase/test_warm_coinbase.py::test_warm_coinbase_gas_usage[fork_Shanghai-state_test-CALLCODE]": {
        "env": {
            "currentCoinbase": "0x2adc25665018aa1fe0e6bc666dac8fc2697ff9ba",
            "currentGasLimit": "0x055d4a80",
            "currentNumber": "0x01",
            "currentTimestamp": "0x03e8",
            "currentRandom": "0x0000000000000000000000000000000000000000000000000000000000000000",
            "currentDifficulty": "0x00",
            "currentBaseFee": "0x07"
        },
        "pre": {
            "0xa94f5374fce5edbc8e2a8697c15331677e6ebf0b": {
                "nonce": "0x00",
                "balance": "0x3635c9adc5dea00000",
                "code": "0x",
                "storage": {}
            },
            "0x1000000000000000000000000000000000001000": {
                "nonce": "0x01",
                "balance": "0x00",
                "code": "0x5a600060006000600060004160fff25a905090036016900360005500",
                "storage": {}
            }
        },
        "transaction": {
            "nonce": "0x00",
            "gasPrice": "0x0a",
            "gasLimit": [
                "0x0186a0"
            ],
            "to": "0x1000000000000000000000000000000000001000",
            "value": [
                "0x00"
            ],
            "data": [
                "0x"
            ],
            "sender": "0xa94f5374fce5edbc8e2a8697c15331677e6ebf0b",
            "secretKey": "0x45a915e4d060149eb4365960e6a7a45f334393093061116b197e3240065ff2d8"
        },
        "post": {
            "Shanghai": [
                {
                    "hash": "0xc0701837031e93a829e83cc24fc35df8ea447e366841c58c1439a3c310684152",
                    "logs": "0x1dcc4de8dec75d7aab85b567b6ccd41ad312451b948a7413f0a142fd40d49347",
                    "txbytes": "0xf860800a830186a0941000000000000000000000000000000000001000808025a062122520aa633c0a60f8fc7a69a072408581d520aae22bacae3a38c37e5a41bba03610a5d2e0dcfae9b08bc9589b1eb4b3c321cd76670a88180388cf130fb786ca",
                    "indexes": {
                        "data": 0,
                        "gas": 0,
                        "value": 0
                    },
                    "state": {
                        "0xa94f5374fce5edbc8e2a8697c15331677e6ebf0b": {
                            "nonce": "0x01",
                            "balance": "0x3635c9adc5de9966aa",
                            "code": "0x",
                            "storage": {}
                        },
                        "0x1000000000000000000000000000000000001000": {
                            "nonce": "0x01",
                            "balance": "0x00",
                            "code": "0x5a600060006000600060004160fff25a905090036016900360005500",
                            "storage": {
                                "0x00": "0x64"
                            }
                        },
                        "0x2adc25665018aa1fe0e6bc666dac8fc2697ff9ba": {
                            "nonce": "0x00",
                            "balance": "0x01facd",
                            "code": "0x",
                            "storage": {}
                        }
                    }
                }
            ]
        },
        "config": {
            "chainid": "0x01"
        },
        "_info": {
            "hash": "0x725fe6e9b5128b8f08b8ea92476fcc4a58f4b855621371fbe17c8c5974f8b716",
            "comment": "`execution-spec-tests` generated test",
            "filling-transition-tool": "ethereum-spec-evm-resolver 0.0.5",
            "description": "Test the gas usage of opcodes affected by assuming a warm coinbase.\n\n    - EXTCODESIZE\n    - EXTCODECOPY\n    - EXTCODEHASH\n    - BALANCE\n    - CALL\n    - CALLCODE\n    - DELEGATECALL\n    - STATICCALL",
            "url": "https://github.com/ethereum/execution-spec-tests/blob/20770a694f440aeb4ea3ec86a3b9bc04d40146a3/tests/shanghai/eip3651_warm_coinbase/test_warm_coinbase.py#L202",
            "fixture-format": "state_test",
            "reference-spec": "https://github.com/ethereum/EIPs/blob/master/EIPS/eip-3651.md",
            "reference-spec-version": "d94c694c6f12291bb6626669c3e8587eef3adff1",
            "eels-resolution": {
                "git-url": "https://github.com/marioevz/execution-specs.git",
                "branch": "forks/bpo1",
                "commit": "3387e5f4aedfe99becfdc39b444d6371e25e0924"
            }
        }
    },
    "tests/shanghai/eip3651_warm_coinbase/test_warm_coinbase.py::test_warm_coinbase_gas_usage[fork_Shanghai-state_test-CALL]": {
        "env": {
            "currentCoinbase": "0x2adc25665018aa1fe0e6bc666dac8fc2697ff9ba",
            "currentGasLimit": "0x055d4a80",
            "currentNumber": "0x01",
            "currentTimestamp": "0x03e8",
            "currentRandom": "0x0000000000000000000000000000000000000000000000000000000000000000",
            "currentDifficulty": "0x00",
            "currentBaseFee": "0x07"
        },
        "pre": {
            "0xa94f5374fce5edbc8e2a8697c15331677e6ebf0b": {
                "nonce": "0x00",
                "balance": "0x3635c9adc5dea00000",
                "code": "0x",
                "storage": {}
            },
            "0x1000000000000000000000000000000000001000": {
                "nonce": "0x01",
                "balance": "0x00",
                "code": "0x5a600060006000600060004160fff15a905090036016900360005500",
                "storage": {}
            }
        },
        "transaction": {
            "nonce": "0x00",
            "gasPrice": "0x0a",
            "gasLimit": [
                "0x0186a0"
            ],
            "to": "0x1000000000000000000000000000000000001000",
            "value": [
                "0x00"
            ],
            "data": [
                "0x"
            ],
            "sender": "0xa94f5374fce5edbc8e2a8697c15331677e6ebf0b",
            "secretKey": "0x45a915e4d060149eb4365960e6a7a45f334393093061116b197e3240065ff2d8"
        },
        "post": {
            "Shanghai": [
                {
                    "hash": "0x261da36e6a1eb376ad2ad2b7f1f3dec78759c41b380692fd95a278086c86386c",
                    "logs": "0x1dcc4de8dec75d7aab85b567b6ccd41ad312451b948a7413f0a142fd40d49347",
                    "txbytes": "0xf860800a830186a0941000000000000000000000000000000000001000808025a062122520aa633c0a60f8fc7a69a072408581d520aae22bacae3a38c37e5a41bba03610a5d2e0dcfae9b08bc9589b1eb4b3c321cd76670a88180388cf130fb786ca",
                    "indexes": {
                        "data": 0,
                        "gas": 0,
                        "value": 0
                    },
                    "state": {
                        "0xa94f5374fce5edbc8e2a8697c15331677e6ebf0b": {
                            "nonce": "0x01",
                            "balance": "0x3635c9adc5de9966aa",
                            "code": "0x",
                            "storage": {}
                        },
                        "0x1000000000000000000000000000000000001000": {
                            "nonce": "0x01",
                            "balance": "0x00",
                            "code": "0x5a600060006000600060004160fff15a905090036016900360005500",
                            "storage": {
                                "0x00": "0x64"
                            }
                        },
                        "0x2adc25665018aa1fe0e6bc666dac8fc2697ff9ba": {
                            "nonce": "0x00",
                            "balance": "0x01facd",
                            "code": "0x",
                            "storage": {}
                        }
                    }
                }
            ]
        },
        "config": {
            "chainid": "0x01"
        },
        "_info": {
            "hash": "0x60d14bd238970c4cabc51b33d36ffd31cb587dce8cb386d17234ddf1a0db28de",
            "comment": "`execution-spec-tests` generated test",
            "filling-transition-tool": "ethereum-spec-evm-resolver 0.0.5",
            "description": "Test the gas usage of opcodes affected by assuming a warm coinbase.\n\n    - EXTCODESIZE\n    - EXTCODECOPY\n    - EXTCODEHASH\n    - BALANCE\n    - CALL\n    - CALLCODE\n    - DELEGATECALL\n    - STATICCALL",
            "url": "https://github.com/ethereum/execution-spec-tests/blob/20770a694f440aeb4ea3ec86a3b9bc04d40146a3/tests/shanghai/eip3651_warm_coinbase/test_warm_coinbase.py#L202",
            "fixture-format": "state_test",
            "reference-spec": "https://github.com/ethereum/EIPs/blob/master/EIPS/eip-3651.md",
            "reference-spec-version": "d94c694c6f12291bb6626669c3e8587eef3adff1",
            "eels-resolution": {
                "git-url": "https://github.com/marioevz/execution-specs.git",
                "branch": "forks/bpo1",
                "commit": "3387e5f4aedfe99becfdc39b444d6371e25e0924"
            }
        }
    },
    "tests/shanghai/eip3651_warm_coinbase/test_warm_coinbase.py::test_warm_coinbase_gas_usage[fork_Shanghai-state_test-DELEGATECALL]": {
        "env": {
            "currentCoinbase": "0x2adc25665018aa1fe0e6bc666dac8fc2697ff9ba",
            "currentGasLimit": "0x055d4a80",
            "currentNumber": "0x01",
            "currentTimestamp": "0x03e8",
            "currentRandom": "0x0000000000000000000000000000000000000000000000000000000000000000",
            "currentDifficulty": "0x00",
            "currentBaseFee": "0x07"
        },
        "pre": {
            "0xa94f5374fce5edbc8e2a8697c15331677e6ebf0b": {
                "nonce": "0x00",
                "balance": "0x3635c9adc5dea00000",
                "code": "0x",
                "storage": {}
            },
            "0x1000000000000000000000000000000000001000": {
                "nonce": "0x01",
                "balance": "0x00",
                "code": "0x5a60006000600060004160fff45a905090036013900360005500",
                "storage": {}
            }
        },
        "transaction": {
            "nonce": "0x00",
            "gasPrice": "0x0a",
            "gasLimit": [
                "0x0186a0"
            ],
            "to": "0x1000000000000000000000000000000000001000",
            "value": [
                "0x00"
            ],
            "data": [
                "0x"
            ],
            "sender": "0xa94f5374fce5edbc8e2a8697c15331677e6ebf0b",
            "secretKey": "0x45a915e4d060149eb4365960e6a7a45f334393093061116b197e3240065ff2d8"
        },
        "post": {
            "Shanghai": [
                {
                    "hash": "0x330b6c77e3ce9f3aa9c719fd2c28a65b9d397457809f50c3d04000bf3a20c7aa",
                    "logs": "0x1dcc4de8dec75d7aab85b567b6ccd41ad312451b948a7413f0a142fd40d49347",
                    "txbytes": "0xf860800a830186a0941000000000000000000000000000000000001000808025a062122520aa633c0a60f8fc7a69a072408581d520aae22bacae3a38c37e5a41bba03610a5d2e0dcfae9b08bc9589b1eb4b3c321cd76670a88180388cf130fb786ca",
                    "indexes": {
                        "data": 0,
                        "gas": 0,
                        "value": 0
                    },
                    "state": {
                        "0xa94f5374fce5edbc8e2a8697c15331677e6ebf0b": {
                            "nonce": "0x01",
                            "balance": "0x3635c9adc5de9966c8",
                            "code": "0x",
                            "storage": {}
                        },
                        "0x1000000000000000000000000000000000001000": {
                            "nonce": "0x01",
                            "balance": "0x00",
                            "code": "0x5a60006000600060004160fff45a905090036013900360005500",
                            "storage": {
                                "0x00": "0x64"
                            }
                        },
                        "0x2adc25665018aa1fe0e6bc666dac8fc2697ff9ba": {
                            "nonce": "0x00",
                            "balance": "0x01fac4",
                            "code": "0x",
                            "storage": {}
                        }
                    }
                }
            ]
        },
        "config": {
            "chainid": "0x01"
        },
        "_info": {
            "hash": "0x1f7eab0db922d836be203e85deda476b07a03369b8132aff44aea9ddd262b6ad",
            "comment": "`execution-spec-tests` generated test",
            "filling-transition-tool": "ethereum-spec-evm-resolver 0.0.5",
            "description": "Test the gas usage of opcodes affected by assuming a warm coinbase.\n\n    - EXTCODESIZE\n    - EXTCODECOPY\n    - EXTCODEHASH\n    - BALANCE\n    - CALL\n    - CALLCODE\n    - DELEGATECALL\n    - STATICCALL",
            "url": "https://github.com/ethereum/execution-spec-tests/blob/20770a694f440aeb4ea3ec86a3b9bc04d40146a3/tests/shanghai/eip3651_warm_coinbase/test_warm_coinbase.py#L202",
            "fixture-format": "state_test",
            "reference-spec": "https://github.com/ethereum/EIPs/blob/master/EIPS/eip-3651.md",
            "reference-spec-version": "d94c694c6f12291bb6626669c3e8587eef3adff1",
            "eels-resolution": {
                "git-url": "https://github.com/marioevz/execution-specs.git",
                "branch": "forks/bpo1",
                "commit": "3387e5f4aedfe99becfdc39b444d6371e25e0924"
            }
        }
    },
    "tests/shanghai/eip3651_warm_coinbase/test_warm_coinbase.py::test_warm_coinbase_gas_usage[fork_Shanghai-state_test-EXTCODECOPY]": {
        "env": {
            "currentCoinbase": "0x2adc25665018aa1fe0e6bc666dac8fc2697ff9ba",
            "currentGasLimit": "0x055d4a80",
            "currentNumber": "0x01",
            "currentTimestamp": "0x03e8",
            "currentRandom": "0x0000000000000000000000000000000000000000000000000000000000000000",
            "currentDifficulty": "0x00",
            "currentBaseFee": "0x07"
        },
        "pre": {
            "0xa94f5374fce5edbc8e2a8697c15331677e6ebf0b": {
                "nonce": "0x00",
                "balance": "0x3635c9adc5dea00000",
                "code": "0x",
                "storage": {}
            },
            "0x1000000000000000000000000000000000001000": {
                "nonce": "0x01",
                "balance": "0x00",
                "code": "0x5a600060006000413c5a9003600d900360005500",
                "storage": {}
            }
        },
        "transaction": {
            "nonce": "0x00",
            "gasPrice": "0x0a",
            "gasLimit": [
                "0x0186a0"
            ],
            "to": "0x1000000000000000000000000000000000001000",
            "value": [
                "0x00"
            ],
            "data": [
                "0x"
            ],
            "sender": "0xa94f5374fce5edbc8e2a8697c15331677e6ebf0b",
            "secretKey": "0x45a915e4d060149eb4365960e6a7a45f334393093061116b197e3240065ff2d8"
        },
        "post": {
            "Shanghai": [
                {
                    "hash": "0x57716a991c105a644529831640fa2adc093f2e172b0938a2131aa37acaf8729b",
                    "logs": "0x1dcc4de8dec75d7aab85b567b6ccd41ad312451b948a7413f0a142fd40d49347",
                    "txbytes": "0xf860800a830186a0941000000000000000000000000000000000001000808025a062122520aa633c0a60f8fc7a69a072408581d520aae22bacae3a38c37e5a41bba03610a5d2e0dcfae9b08bc9589b1eb4b3c321cd76670a88180388cf130fb786ca",
                    "indexes": {
                        "data": 0,
                        "gas": 0,
                        "value": 0
                    },
                    "state": {
                        "0xa94f5374fce5edbc8e2a8697c15331677e6ebf0b": {
                            "nonce": "0x01",
                            "balance": "0x3635c9adc5de996736",
                            "code": "0x",
                            "storage": {}
                        },
                        "0x1000000000000000000000000000000000001000": {
                            "nonce": "0x01",
                            "balance": "0x00",
                            "code": "0x5a600060006000413c5a9003600d900360005500",
                            "storage": {
                                "0x00": "0x64"
                            }
                        },
                        "0x2adc25665018aa1fe0e6bc666dac8fc2697ff9ba": {
                            "nonce": "0x00",
                            "balance": "0x01faa3",
                            "code": "0x",
                            "storage": {}
                        }
                    }
                }
            ]
        },
        "config": {
            "chainid": "0x01"
        },
        "_info": {
            "hash": "0x69d1556e0c9d81715424290dfcf0cca3b05dac77a86cc05e3195aa838001a39c",
            "comment": "`execution-spec-tests` generated test",
            "filling-transition-tool": "ethereum-spec-evm-resolver 0.0.5",
            "description": "Test the gas usage of opcodes affected by assuming a warm coinbase.\n\n    - EXTCODESIZE\n    - EXTCODECOPY\n    - EXTCODEHASH\n    - BALANCE\n    - CALL\n    - CALLCODE\n    - DELEGATECALL\n    - STATICCALL",
            "url": "https://github.com/ethereum/execution-spec-tests/blob/20770a694f440aeb4ea3ec86a3b9bc04d40146a3/tests/shanghai/eip3651_warm_coinbase/test_warm_coinbase.py#L202",
            "fixture-format": "state_test",
            "reference-spec": "https://github.com/ethereum/EIPs/blob/master/EIPS/eip-3651.md",
            "reference-spec-version": "d94c694c6f12291bb6626669c3e8587eef3adff1",
            "eels-resolution": {
                "git-url": "https://github.com/marioevz/execution-specs.git",
                "branch": "forks/bpo1",
                "commit": "3387e5f4aedfe99becfdc39b444d6371e25e0924"
            }
        }
    },
    "tests/shanghai/eip3651_warm_coinbase/test_warm_coinbase.py::test_warm_coinbase_gas_usage[fork_Shanghai-state_test-EXTCODEHASH]": {
        "env": {
            "currentCoinbase": "0x2adc25665018aa1fe0e6bc666dac8fc2697ff9ba",
            "currentGasLimit": "0x055d4a80",
            "currentNumber": "0x01",
            "currentTimestamp": "0x03e8",
            "currentRandom": "0x0000000000000000000000000000000000000000000000000000000000000000",
            "currentDifficulty": "0x00",
            "currentBaseFee": "0x07"
        },
        "pre": {
            "0xa94f5374fce5edbc8e2a8697c15331677e6ebf0b": {
                "nonce": "0x00",
                "balance": "0x3635c9adc5dea00000",
                "code": "0x",
                "storage": {}
            },
            "0x1000000000000000000000000000000000001000": {
                "nonce": "0x01",
                "balance": "0x00",
                "code": "0x5a413f5a905090036004900360005500",
                "storage": {}
            }
        },
        "transaction": {
            "nonce": "0x00",
            "gasPrice": "0x0a",
            "gasLimit": [
                "0x0186a0"
            ],
            "to": "0x1000000000000000000000000000000000001000",
            "value": [
                "0x00"
            ],
            "data": [
                "0x"
            ],
            "sender": "0xa94f5374fce5edbc8e2a8697c15331677e6ebf0b",
            "secretKey": "0x45a915e4d060149eb4365960e6a7a45f334393093061116b197e3240065ff2d8"
        },
        "post": {
            "Shanghai": [
                {
                    "hash": "0xbc3b3ef37d7fb215be6ed76baef6f2d224b07c5c987d6cb9c0d3020a67361d24",
                    "logs": "0x1dcc4de8dec75d7aab85b567b6ccd41ad312451b948a7413f0a142fd40d49347",
                    "txbytes": "0xf860800a830186a0941000000000000000000000000000000000001000808025a062122520aa633c0a60f8fc7a69a072408581d520aae22bacae3a38c37e5a41bba03610a5d2e0dcfae9b08bc9589b1eb4b3c321cd76670a88180388cf130fb786ca",
                    "indexes": {
                        "data": 0,
                        "gas": 0,
                        "value": 0
                    },
                    "state": {
                        "0xa94f5374fce5edbc8e2a8697c15331677e6ebf0b": {
                            "nonce": "0x01",
                            "balance": "0x3635c9adc5de99675e",
                            "code": "0x",
                            "storage": {}
                        },
                        "0x1000000000000000000000000000000000001000": {
                            "nonce": "0x01",
                            "balance": "0x00",
                            "code": "0x5a413f5a905090036004900360005500",
                            "storage": {
                                "0x00": "0x64"
                            }
                        },
                        "0x2adc25665018aa1fe0e6bc666dac8fc2697ff9ba": {
                            "nonce": "0x00",
                            "balance": "0x01fa97",
                            "code": "0x",
                            "storage": {}
                        }
                    }
                }
            ]
        },
        "config": {
            "chainid": "0x01"
        },
        "_info": {
            "hash": "0x2cba67ba046308352c6694aaaa5029ca3fde74d7390a6090a4bd8169d42e6bf1",
            "comment": "`execution-spec-tests` generated test",
            "filling-transition-tool": "ethereum-spec-evm-resolver 0.0.5",
            "description": "Test the gas usage of opcodes affected by assuming a warm coinbase.\n\n    - EXTCODESIZE\n    - EXTCODECOPY\n    - EXTCODEHASH\n    - BALANCE\n    - CALL\n    - CALLCODE\n    - DELEGATECALL\n    - STATICCALL",
            "url": "https://github.com/ethereum/execution-spec-tests/blob/20770a694f440aeb4ea3ec86a3b9bc04d40146a3/tests/shanghai/eip3651_warm_coinbase/test_warm_coinbase.py#L202",
            "fixture-format": "state_test",
            "reference-spec": "https://github.com/ethereum/EIPs/blob/master/EIPS/eip-3651.md",
            "reference-spec-version": "d94c694c6f12291bb6626669c3e8587eef3adff1",
            "eels-resolution": {
                "git-url": "https://github.com/marioevz/execution-specs.git",
                "branch": "forks/bpo1",
                "commit": "3387e5f4aedfe99becfdc39b444d6371e25e0924"
            }
        }
    },
    "tests/shanghai/eip3651_warm_coinbase/test_warm_coinbase.py::test_warm_coinbase_gas_usage[fork_Shanghai-state_test-EXTCODESIZE]": {
        "env": {
            "currentCoinbase": "0x2adc25665018aa1fe0e6bc666dac8fc2697ff9ba",
            "currentGasLimit": "0x055d4a80",
            "currentNumber": "0x01",
            "currentTimestamp": "0x03e8",
            "currentRandom": "0x0000000000000000000000000000000000000000000000000000000000000000",
            "currentDifficulty": "0x00",
            "currentBaseFee": "0x07"
        },
        "pre": {
            "0xa94f5374fce5edbc8e2a8697c15331677e6ebf0b": {
                "nonce": "0x00",
                "balance": "0x3635c9adc5dea00000",
                "code": "0x",
                "storage": {}
            },
            "0x1000000000000000000000000000000000001000": {
                "nonce": "0x01",
                "balance": "0x00",
                "code": "0x5a413b5a905090036004900360005500",
                "storage": {}
            }
        },
        "transaction": {
            "nonce": "0x00",
            "gasPrice": "0x0a",
            "gasLimit": [
                "0x0186a0"
            ],
            "to": "0x1000000000000000000000000000000000001000",
            "value": [
                "0x00"
            ],
            "data": [
                "0x"
            ],
            "sender": "0xa94f5374fce5edbc8e2a8697c15331677e6ebf0b",
            "secretKey": "0x45a915e4d060149eb4365960e6a7a45f334393093061116b197e3240065ff2d8"
        },
        "post": {
            "Shanghai": [
                {
                    "hash": "0x288b25ea4a77488d9371397780ce08a8d4505ac1ed91bba9640b56c58d76ebd5",
                    "logs": "0x1dcc4de8dec75d7aab85b567b6ccd41ad312451b948a7413f0a142fd40d49347",
                    "txbytes": "0xf860800a830186a0941000000000000000000000000000000000001000808025a062122520aa633c0a60f8fc7a69a072408581d520aae22bacae3a38c37e5a41bba03610a5d2e0dcfae9b08bc9589b1eb4b3c321cd76670a88180388cf130fb786ca",
                    "indexes": {
                        "data": 0,
                        "gas": 0,
                        "value": 0
                    },
                    "state": {
                        "0xa94f5374fce5edbc8e2a8697c15331677e6ebf0b": {
                            "nonce": "0x01",
                            "balance": "0x3635c9adc5de99675e",
                            "code": "0x",
                            "storage": {}
                        },
                        "0x1000000000000000000000000000000000001000": {
                            "nonce": "0x01",
                            "balance": "0x00",
                            "code": "0x5a413b5a905090036004900360005500",
                            "storage": {
                                "0x00": "0x64"
                            }
                        },
                        "0x2adc25665018aa1fe0e6bc666dac8fc2697ff9ba": {
                            "nonce": "0x00",
                            "balance": "0x01fa97",
                            "code": "0x",
                            "storage": {}
                        }
                    }
                }
            ]
        },
        "config": {
            "chainid": "0x01"
        },
        "_info": {
            "hash": "0x12f4fe2608128fa249814597544ac0877b685c25916229bd5470b56cf8e39e23",
            "comment": "`execution-spec-tests` generated test",
            "filling-transition-tool": "ethereum-spec-evm-resolver 0.0.5",
            "description": "Test the gas usage of opcodes affected by assuming a warm coinbase.\n\n    - EXTCODESIZE\n    - EXTCODECOPY\n    - EXTCODEHASH\n    - BALANCE\n    - CALL\n    - CALLCODE\n    - DELEGATECALL\n    - STATICCALL",
            "url": "https://github.com/ethereum/execution-spec-tests/blob/20770a694f440aeb4ea3ec86a3b9bc04d40146a3/tests/shanghai/eip3651_warm_coinbase/test_warm_coinbase.py#L202",
            "fixture-format": "state_test",
            "reference-spec": "https://github.com/ethereum/EIPs/blob/master/EIPS/eip-3651.md",
            "reference-spec-version": "d94c694c6f12291bb6626669c3e8587eef3adff1",
            "eels-resolution": {
                "git-url": "https://github.com/marioevz/execution-specs.git",
                "branch": "forks/bpo1",
                "commit": "3387e5f4aedfe99becfdc39b444d6371e25e0924"
            }
        }
    },
    "tests/shanghai/eip3651_warm_coinbase/test_warm_coinbase.py::test_warm_coinbase_gas_usage[fork_Shanghai-state_test-STATICCALL]": {
        "env": {
            "currentCoinbase": "0x2adc25665018aa1fe0e6bc666dac8fc2697ff9ba",
            "currentGasLimit": "0x055d4a80",
            "currentNumber": "0x01",
            "currentTimestamp": "0x03e8",
            "currentRandom": "0x0000000000000000000000000000000000000000000000000000000000000000",
            "currentDifficulty": "0x00",
            "currentBaseFee": "0x07"
        },
        "pre": {
            "0xa94f5374fce5edbc8e2a8697c15331677e6ebf0b": {
                "nonce": "0x00",
                "balance": "0x3635c9adc5dea00000",
                "code": "0x",
                "storage": {}
            },
            "0x1000000000000000000000000000000000001000": {
                "nonce": "0x01",
                "balance": "0x00",
                "code": "0x5a60006000600060004160fffa5a905090036013900360005500",
                "storage": {}
            }
        },
        "transaction": {
            "nonce": "0x00",
            "gasPrice": "0x0a",
            "gasLimit": [
                "0x0186a0"
            ],
            "to": "0x1000000000000000000000000000000000001000",
            "value": [
                "0x00"
            ],
            "data": [
                "0x"
            ],
            "sender": "0xa94f5374fce5edbc8e2a8697c15331677e6ebf0b",
            "secretKey": "0x45a915e4d060149eb4365960e6a7a45f334393093061116b197e3240065ff2d8"
        },
        "post": {
            "Shanghai": [
                {
                    "hash": "0x47008f5dc4b22e4cff51ab56d81d9083c8c922980d6433eee47257eba488b7a1",
                    "logs": "0x1dcc4de8dec75d7aab85b567b6ccd41ad312451b948a7413f0a142fd40d49347",
                    "txbytes": "0xf860800a830186a0941000000000000000000000000000000000001000808025a062122520aa633c0a60f8fc7a69a072408581d520aae22bacae3a38c37e5a41bba03610a5d2e0dcfae9b08bc9589b1eb4b3c321cd76670a88180388cf130fb786ca",
                    "indexes": {
                        "data": 0,
                        "gas": 0,
                        "value": 0
                    },
                    "state": {
                        "0xa94f5374fce5edbc8e2a8697c15331677e6ebf0b": {
                            "nonce": "0x01",
                            "balance": "0x3635c9adc5de9966c8",
                            "code": "0x",
                            "storage": {}
                        },
                        "0x1000000000000000000000000000000000001000": {
                            "nonce": "0x01",
                            "balance": "0x00",
                            "code": "0x5a60006000600060004160fffa5a905090036013900360005500",
                            "storage": {
                                "0x00": "0x64"
                            }
                        },
                        "0x2adc25665018aa1fe0e6bc666dac8fc2697ff9ba": {
                            "nonce": "0x00",
                            "balance": "0x01fac4",
                            "code": "0x",
                            "storage": {}
                        }
                    }
                }
            ]
        },
        "config": {
            "chainid": "0x01"
        },
        "_info": {
            "hash": "0x4ade891854ab07f0e83a45ce8e8fdd2a063571ce8b6b537453e2d607f937527d",
            "comment": "`execution-spec-tests` generated test",
            "filling-transition-tool": "ethereum-spec-evm-resolver 0.0.5",
            "description": "Test the gas usage of opcodes affected by assuming a warm coinbase.\n\n    - EXTCODESIZE\n    - EXTCODECOPY\n    - EXTCODEHASH\n    - BALANCE\n    - CALL\n    - CALLCODE\n    - DELEGATECALL\n    - STATICCALL",
            "url": "https://github.com/ethereum/execution-spec-tests/blob/20770a694f440aeb4ea3ec86a3b9bc04d40146a3/tests/shanghai/eip3651_warm_coinbase/test_warm_coinbase.py#L202",
            "fixture-format": "state_test",
            "reference-spec": "https://github.com/ethereum/EIPs/blob/master/EIPS/eip-3651.md",
            "reference-spec-version": "d94c694c6f12291bb6626669c3e8587eef3adff1",
            "eels-resolution": {
                "git-url": "https://github.com/marioevz/execution-specs.git",
                "branch": "forks/bpo1",
                "commit": "3387e5f4aedfe99becfdc39b444d6371e25e0924"
            }
        }
    }
}